:100000000C94B1050C94D9050C94D9050C94D90520
:100010000C94D9050C94D9050C94D9050C94D905E8
:100020000C94D9050C94D9050C94F40D0C94660E1F
:100030000C94D9050C94D9050C94D9050C94D905C8
:100040000C94D9050C94D9050C94D9050C94D905B8
:100050000C94D9050C94D9050C94D9050C948906F7
:100060000C94D9050C94D9050C94D9050C94D90598
:100070000C94D9050C94D9050C94D9050C94D90588
:100080000C9481070C94D9050C94D9050C94D905CE
:100090000C94D9050C94D9050C94D9050C94D90568
:1000A0000C94D9050C94D9050C94D905F0F89C8EC4
:1000B0008783878E9CF8F00000FEFF030303030391
:1000C000070EFCF80000FEFF0303030303070EFC0A
:1000D000F80000FFFF00000000000000FFFF00002C
:1000E000FEFF8383838383C7EE7C380000F8FC0E19
:1000F00007030303070EFCF800003F7FE0C0808089
:10010000C0E07F3FFFFF01010101010101FFFF008E
:1001100000FFFF0C0C0C0C1C3E77E3C100007FFFBE
:10012000C0C0C0C0C0E0703F1F00001F3F70E0C0F3
:10013000C0C0E0703F1F00007FFFC1C1C1C1C1E36B
:10014000773E1C00001F3F70E0C0C0C0E0703F1F42
:10015000000000000001FFFF01000000D5F08D1439
:10016000A1C881CFD9F1AF200070757368412642D4
:100170000054494D453A00506C6179322077696EE0
:1001800000506C6179312077696E00526561647945
:100190003F00466967687421210050323A48500098
:1001A00050313A4850002D008FC72C6C96CBE57229
:1001B000B95C2E97CBE54A65010FC72C6C96CBE551
:1001C00072B95C2E97CBE54A65013C4F4B3E002D42
:1001D00000315020565320435055003E0053453ABD
:1001E0004F46460053453A4F4E0043505531205636
:1001F000532043505532004361726420466F6C6453
:100200006572004C56004350553100427265616B77
:10021000204D616E0054616E6B204D616E00437520
:100220006265204D616E00427573746572204D6188
:100230006E000FCFD7E00441A04A005058A0000440
:100240002D200853F2CA8B803000010D0003541892
:100250000044018101025EDC0FCFD7354F3D7AF5B6
:10026000D8D35CAFBC1CC62D57AFB98DC3C50D0725
:10027000C77101412602B081704107C771259D25D4
:100280003BE18207C7720000600108B0000038201F
:10029000078783645ED665260C07C780A08A48401E
:1002A00010040021C83007C780E0E21D2B1D068F17
:1002B000CF1C911B71134C70D6122090F81145C1C0
:1002C0009442845E0817080EB4C030C8C1038FCFB3
:1002D0001C7B5BFB92870C123F32943BA7CBB8ECA4
:1002E000711B87830707C76462740100B081704186
:1002F00007C7645ED6203BE18287C748A284C6A8B0
:10030000537A1287C748A2EC9CE63C0987C72BD6D4
:1003100082500BB2A05B87C72B9FE12807C77202F0
:100320008EE80195830007C772028EE8611F040FF3
:10033000CF970C82042B0207CA520AA84EA42C3A6B
:100340003E63902022802220200A20224162BCB2FB
:10035000010FCF978CE1707AECADA7795897CF98C1
:1003600006EBD5AB9534C62B1B07C7718041004007
:1003700010044020E03007C771348B3B2B1D0687EB
:10038000C7631175A96111000E0887C7635DD66543
:100390000D72400FCF1727028D8052518893830032
:1003A00027E406BC11644554A062AC8237002620C5
:1003B000A5A8E0850D0FCF1767799ECB619D7ACBFD
:1003C0001BE93A72EEBE05E6A91B2F6C0FCF77C36F
:1003D0004092916207B80D108729C46470370E11DE
:1003E0000F4AAA02612280233333383D018FCF1C8C
:1003F000C821479E7BCDD130A20C0CA539E5794FA1
:1004000039731B854407C7B79803E53107C7645E96
:10041000D6203BE1820FCFC79CC6611EAE877918FC
:10042000A73CCA719CE6613A0FF3348ED90FCF779F
:10043000CE7BAF17FBD6C3FCC0BC75EFFB38EDCD50
:10044000330FCF87391468454445C406115988D8FD
:1004500000C3F44D27073217B2A6888A88A8884BB4
:100460008A73030FCF87AB57AF5EBD7A1C87379D6A
:10047000A75CBD7AF5EAD5B9010FCFEFC10D8009B0
:10048000A212834AA02A1BC19782D64202B9102E1B
:1004900000E0401460F0160FCFEFC17DC9734EBB72
:1004A000F8524627A7CBB8ECB1C9E02D0FCFEFBB70
:1004B0005909CE5A020402838DE04B416B21191772
:1004C000C201D5810AC020BC030F8FDFD8EBC8233F
:1004D0000619FBE00BF78D39D669CE5343C253465C
:1004E00069726500507269736D004578706C6F7346
:1004F00000426F6F6D657200506172616C790054DB
:1005000077696E004775737400427265616B0057BE
:10051000617665005468726F7700426F6D620041CA
:1005200069720047756E6D616E0054616E6B0043B9
:10053000756265004275737465720087C759072339
:10054000017198C30A87C7593A1052A40119BA0217
:1005500007C7364B00250AA04B4C2A07C763110575
:1005600006800003D0B00687C759179580018C8795
:100570001507C7361831628C1831920A07C7A38C49
:10058000000E58A2402E0387C75926280240003586
:1005900083AC0007C73602889122D188D05407C7A0
:1005A000A3F4A016A4C5CB0087C759078150ABF1AF
:1005B000B00207C736AAAA4B10A4A8A60287C7593B
:1005C0001B5450072A54570007C7E3222E01010B82
:1005D00062190307C7364B8A20088214572A07C7B7
:1005E000E3A22EF5A25E0687C7DF07000000000029
:1005F0003E5B4F5B3E3E6B4F6B3E1C3E7C3E1C1891
:100600003C7E3C181C577D571C1C5E7F5E1C0018EE
:100610003C1800FFE7C3E7FF0018241800FFE7DBE2
:10062000E7FF30483A060E2629792926407F05053E
:1006300007407F05253F5A3CE73C5A7F3E1C1C087B
:10064000081C1C3E7F14227F22145F5F005F5F0640
:10065000097F017F006689956A606060606094A28E
:10066000FFA29408047E040810207E201008082AA7
:100670001C08081C2A08081E101010100C1E0C1E46
:100680000C30383E3830060E3E0E060000000000EA
:1006900000005F00000007000700147F147F14248F
:1006A0002A7F2A1223130864623649562050000814
:1006B000070300001C2241000041221C002A1C7F6D
:1006C0001C2A08083E080800807030000808080846
:1006D00008000060600020100804023E5149453EB9
:1006E00000427F400072494949462141494D331833
:1006F00014127F1027454545393C4A49493141216B
:100700001109073649494936464949291E0000144E
:100710000000004034000000081422411414141496
:1007200014004122140802015909063E415D594E48
:100730007C1211127C7F494949363E414141227F5A
:100740004141413E7F494949417F090909013E41F3
:100750004151737F0808087F00417F4100204041DC
:100760003F017F081422417F404040407F021C022D
:100770007F7F0408107F3E4141413E7F0909090601
:100780003E4151215E7F09192946264949493203D4
:10079000017F01033F4040403F1F2040201F3F405A
:1007A00038403F6314081463030478040361594913
:1007B0004D43007F41414102040810200041414166
:1007C0007F0402010204404040404000030708004B
:1007D00020545478407F28444438384444442838CE
:1007E0004444287F385454541800087E090218A441
:1007F000A49C787F0804047800447D400020404099
:100800003D007F1028440000417F40007C047804B4
:10081000787C080404783844444438FC18242418AC
:1008200018242418FC7C0804040848545454240454
:10083000043F44243C4040207C1C2040201C3C4081
:1008400030403C44281028444C9090907C446454A0
:100850004C44000836410000007700000041360893
:100860000002010204023C2623263C1EA1A16112C3
:100870003A4040207A3854545559215555794121F0
:1008800054547841215554784020545579400C1ED9
:100890005272123955555559395454545939555481
:1008A00054580000457C410002457D420001457CD2
:1008B00040F0292429F0F0282528F07C54554500E3
:1008C0002054547C547C0A097F49324949493232C8
:1008D00048484832324A4848303A4141217A3A42FF
:1008E000402078009DA0A07D39444444393D4040DB
:1008F000403D3C24FF2424487E4943662B2FFC2F97
:100900002BFF0929F620C0887E0903205454794121
:100910000000447D413048484A32384040227A0045
:100920007A0A0A727D0D19317D2629292F28262958
:1009300029292630484D40203808080808080808AA
:1009400008382F10C8ACBA2F102834FA00007B00EA
:100950000008142A142222142A1408950022009553
:10096000AA005500AAAA55AA55AA000000FF001027
:100970001010FF00141414FF001010FF00FF1010DF
:10098000F010F0141414FC001414F700FF0000FF22
:1009900000FF1414F404FC141417101F10101F107F
:1009A0001F1414141F00101010F0000000001F107E
:1009B0001010101F10101010F010000000FF101089
:1009C00010101010101010FF10000000FF14000095
:1009D000FF00FF00001F10170000FC04F4141417A0
:1009E00010171414F404F40000FF00F71414141486
:1009F000141414F700F7141414171410101F101FF8
:100A0000141414F4141010F010F000001F101F0044
:100A100000001F14000000FC140000F010F0101083
:100A2000FF10FF141414FF141010101F000000001A
:100A3000F010FFFFFFFFFFF0F0F0F0F0FFFFFF000E
:100A400000000000FFFF0F0F0F0F0F384444384421
:100A50007C2A2A3E147E02020606027E027E026381
:100A6000554941633844443C04407E201E20060220
:100A70007E020299A5E7A5991C2A492A1C4C7201FD
:100A8000724C304A4D4D303048784830BC625A463E
:100A90003D3E494949007E0101017E2A2A2A2A2A2F
:100AA00044445F444440514A444040444A51400019
:100AB00000FF0103E080FF000008086B6B0836129E
:100AC000362436060F090F06000018180000001023
:100AD00010003040FF0101001F01011E00191D1709
:100AE00012003C3C3C3C00000000000102040810E5
:100AF0002040800403090412010002EF020140417A
:100B000023368000010102030141726475696E6F32
:100B1000204C4C430041726475626F7900080B00F1
:100B20000202020100090400000102020000052483
:100B30000010010524010101042402060524060019
:100B4000010705810310004009040100020A0000AA
:100B50000007050202400000070583024000000074
:100B6000803411241FBECFEFDAE0DEBFCDBF11E02D
:100B7000A0E0B1E0E8E9FFE602C005900D92A436DE
:100B8000B107D9F727E0A4E6B1E001C01D92AD3B63
:100B9000B207E1F715E0C1EBD5E004C02197FE01F3
:100BA0000E94BF37C03BD107C9F70E94E1160C94E1
:100BB000CA370C940000CF92DF92EF92FF920F930E
:100BC0001F93CF93DF936C017A018B01C0E0D0E0DB
:100BD000CE15DF0589F0D8016D918D01D601ED911B
:100BE000FC910190F081E02DC6010995892B11F44B
:100BF0007E0102C02196ECCFC701DF91CF911F91FA
:100C00000F91FF90EF90DF90CF9008953FB7F89449
:100C10008091240390912503A0912603B09127038E
:100C200026B5A89B05C02F3F19F00196A11DB11D47
:100C30003FBFBA2FA92F982F8827820F911DA11D82
:100C4000B11DBC01CD0142E0660F771F881F991FBF
:100C50004A95D1F7089580916D01E0916B01F09173
:100C60006C01882349F0CF01029690936C01809328
:100C70006B01859194910895CF01029690936C0138
:100C800080936B0180819181089580916401089522
:100C90000895089580E090E008950E94C5378F92EE
:100CA0009F92AF92BF92CF92DF92EF92FF926B0131
:100CB0007C010E9406064B015C01C114D104E104D1
:100CC000F104F1F00E940606DC01CB0188199909B4
:100CD000AA09BB09883E9340A105B10570F321E044
:100CE000C21AD108E108F10888EE880E83E0981E48
:100CF000A11CB11CC114D104E104F10419F7DDCF2A
:100D0000FF90EF90DF90CF90BF90AF909F908F902B
:100D100008951F920F920FB60F9211242F933F93B5
:100D20008F939F93AF93BF938091650190916601DC
:100D3000A0916701B09168013091230323E0230F54
:100D40002D3720F40196A11DB11D05C026E8230F03
:100D50000296A11DB11D20932303809365019093FA
:100D60006601A0936701B09368018091240390917C
:100D70002503A0912603B09127030196A11DB11D63
:100D80008093240390932503A0932603B093270315
:100D9000BF91AF919F918F913F912F910F900FBE77
:100DA0000F901F901895CF92DF92EF92FF920F93C2
:100DB0001F93CF93DF930E942B06811520E89207A3
:100DC00061F4809171008D7F809371001092910089
:100DD0004698479810921C038BC021E020931C0377
:100DE000813020E8920751F48091690190916A0165
:100DF00090936C0180936B010E942B0697FD05C0B8
:100E000020911B03222309F43FC020911A032111D2
:100E10003BC021E020931D03EC01DF77209769F4AC
:100E200081E080931E0346983FE9C32E3FE0D32E16
:100E3000E12CF12CCAEFD0E014C08E0120E030E0AC
:100E400060E472E48FE090E0A90198010E9474359B
:100E500069017A0181E0C81AD108E108F10810920D
:100E60001E03E0914D07F0914E070995811103C0D3
:100E700081E080931E0380911D038823B9F1809146
:100E80001E03811133C003C010921D03C5CF4699C4
:100E90002DC0479A0E942B06009771F09C01DE013D
:100EA0000E94C835DC01CB0129E0B595A79597953F
:100EB00087952A95D1F703C08FEF9FEFDC01109241
:100EC00090002AE020939100D0929900C09298005F
:100ED00080931F0390932003A0932103B0932203D8
:100EE0008091710082608093710002C04798D2CFD8
:100EF000DF91CF911F910F91FF90EF90DF90CF90F6
:100F000008951F920F920FB60F9211242F933F93C3
:100F10004F935F936F937F938F939F93AF93BF9301
:100F2000EF93FF9380911F0390912003A0912103E1
:100F3000B0912203892B8A2B8B2B81F180911E0388
:100F400081110BC098B180E4892788B980911D0375
:100F5000882319F088B1805888B980911F03909137
:100F60002003A0912103B0912203181619061A0636
:100F70001B06B4F480911F0390912003A0912103DC
:100F8000B09122030197A109B10980931F039093A7
:100F90002003A0932103B093220302C00E94D30632
:100FA000FF91EF91BF91AF919F918F917F916F9141
:100FB0005F914F913F912F910F900FBE0F901F9017
:100FC00018952D9A0895BC0180E090E00C944F068E
:100FD0008FB12CB193B130E0209530952074332738
:100FE000A90123E0559547952A95E1F7292F30E08F
:100FF0002095309520713327359527953595279580
:10100000242B8095807F822B089583B7817F83BFB7
:1010100083B7816083BF889583B78E7F83BF089530
:101020008EBD00000DB407FEFDCF0895EBEEFAE093
:1010300090E1969FD001A0781124A80F6770E60F69
:10104000F11D9491A15CBC4F442319F08C91982B15
:1010500003C090958C9198239C9308952F923F9272
:101060004F925F926F927F928F929F92AF92BF92B8
:10107000CF92DF92EF92FF920F931F93CF93DF9364
:10108000CDB7DEB727970FB6F894DEBF0FBECDBF42
:10109000FC016A3069F4248D808D918D38E0239FA6
:1010A000800D911D1124918F808F178A168AA6C0FA
:1010B0006D3009F4A3C09F838E83348C238D2983E4
:1010C000328D3A83608C718CE688F78880E8E81668
:1010D000F104C4F0AE81BF815C962C915C97422FE5
:1010E00050E056968D919C915797B6E02B9F800DBE
:1010F000911D1124EE81FF81978B868B258D211107
:1011000067C07CC0F0E46F16710424F7C70125E0C6
:10111000329E800D911D112418161906DCF6432C01
:10112000512CC30138E0339E800D911D11241816F7
:10113000190684F685E0689F8001112405511A4F35
:1011400020E0F8012490253009F4212C430158E0D7
:1011500020FC02C0398101C03A8131110BC0F981F4
:101160008A81F81307C026945150840C951C5111A4
:10117000EFCF25C067018C2D8E198315A0F7540180
:101180008A2D88198315B8F490E8C916D10478F42B
:10119000A0E4AA16B10458F4432FB501C6012C836C
:1011A0003B835D830E9416085D813B812C81BFEFEC
:1011B000AB1ABB0AE5CFEFEFCE1ADE0ADCCF2F5F0A
:1011C000E40CF51C0F5F1F4F263009F0BACF82CF19
:1011D0006AEF64039001659F300D112420583F4F42
:1011E000281739075CF4AE81BF81ED91FC9111970E
:1011F0000190F081E02D6AE0CD01099581E090E059
:1012000027960FB6F894DEBF0FBECDBFDF91CF910A
:101210001F910F91FF90EF90DF90CF90BF90AF9014
:101220009F908F907F906F905F904F903F902F9006
:1012300008950F934130510521F400E047EE55E049
:101240006FC04530510521F400E04EED55E068C017
:101250004630510521F400E043ED55E061C04930CE
:10126000510521F400E048EC55E05AC04A305105E0
:1012700021F400E04DEB55E053C04B30510521F413
:1012800000E042EB55E04CC04C30510521F400E049
:1012900048EA55E045C04D30510521F400E04EE9E3
:1012A00055E03EC04E30510521F400E043E955E0E1
:1012B00037C04F30510521F400E047E855E030C019
:1012C0004031510521F400E04CE755E029C041319F
:1012D000510521F400E041E755E022C042315105BB
:1012E00021F400E047E655E01BC04331510521F4ED
:1012F00000E04BE555E014C04431510521F400E015
:1013000040E555E00DC04531510521F400E045E4CC
:1013100055E006C04631510529F400E04BE355E0A5
:101320000E9427110F9108958530910571F1863043
:101330009105A1F18830910541F18930910559F16C
:101340008A30910559F19C012B5031092330310528
:10135000F8F02350310922303105E8F022503109EC
:101360002230310578F08231910579F08331910591
:1013700079F08431910579F08531910579F04697BE
:1013800081F406C08CE090E0089584E090E0089538
:1013900086E090E0089588E090E0089581E090E094
:1013A000089580E090E008958530910569F18630D8
:1013B000910569F18930910539F18A30910509F17A
:1013C0008B30910521F18C309105D9F08D3091054C
:1013D000D9F08E309105D9F08F30910591F08031A0
:1013E000910591F08131910591F08231910549F09B
:1013F0008331910549F08431910549F04597029771
:1014000048F483E090E0089581E090E0089582E060
:1014100090E0089580E090E0089585309105F1F026
:1014200089309105F1F08B309105F1F08C30910508
:10143000F1F08E30910509F18F309105D9F08131AD
:101440009105D9F082319105D9F083319105D9F018
:1014500084319105D9F04697E1F409C08EE190E01E
:10146000089580E590E0089588E290E0089588E787
:1014700090E0089582E390E008958CE390E0089571
:1014800084E190E0089586E490E008958CE291E094
:10149000089580E090E008958530910519F484E383
:1014A00095E058C08630910519F48FE295E052C05E
:1014B0008930910519F48AE295E04CC08A30910593
:1014C00019F483E295E046C08B30910519F48FE161
:1014D00095E040C08C30910519F48AE195E03AC05E
:1014E0008D30910519F484E195E034C08E3091057A
:1014F00019F48FE095E02EC08F30910519F489E042
:1015000095E028C08031910519F484E095E022C06F
:101510008131910519F48FEF94E01CC0823191055F
:1015200019F488EF94E016C08331910519F481EF26
:1015300094E010C08431910519F48AEE94E00AC059
:101540008531910519F484EE94E004C0469721F4A6
:101550008FED94E00C94E71008954F925F926F9294
:101560007F928F929F92AF92BF92CF92DF92EF9233
:10157000FF920F931F93CF93DF935C014B01E9011F
:10158000780141155105B1F411E0EF2809F010E0A0
:1015900021E01C9F201911240C2F49EC54E0B401C8
:1015A000C5010E942711112309F453C12C2F4CEAC5
:1015B00054E04BC141305105B1F411E0EF2809F07E
:1015C00010E021E01C9F201911240C2F47E954E062
:1015D000B401C5010E942711112309F43AC12C2F2F
:1015E00049E754E032C14230510579F421E02C1B27
:1015F0000C2F43E654E0C5010E942711EF2809F0A3
:1016000028C12C2F41E454E020C14330510561F43E
:1016100021E02C1B0C2F4DE254E0C5010E94271144
:101620002C2F45E154E011C14430510561F421E013
:101630002C1B0C2F4CE054E0C5010E9427112C2FCD
:1016400045E054E002C14530510531F5B901330F91
:10165000880B990B0E9475362DEC3CEC4CE45EE354
:101660000E9406379B01AC0160E070E080E89FE3D8
:101670000E94D7356B017C010C2F21E04DEE53E029
:10168000B401C5010E94571320E04CEC53E0B401B3
:10169000C5010E945713DDC046305105B1F411E079
:1016A000EF2809F010E021E01C9F201911240C2FD5
:1016B00045EB53E0B401C5010E942711112309F441
:1016C000C8C02C2F43E953E0C0C04730510561F436
:1016D00021E02C1B0C2F4AE853E0C5010E94271182
:1016E0002C2F4FE753E0B1C04830510561F421E0A1
:1016F0002C1B0C2F46E753E0C5010E9427112C2F0D
:1017000049E653E0A2C04930510569F4022F21E0B7
:1017100041E553E00E942711EF2809F09AC020E02C
:101720004FE253E092C04A30510561F421E02C1B96
:101730000C2F46E253E0C5010E9427112C2F4CE1EB
:1017400053E083C04B30510561F421E02C1B0C2F7A
:1017500046E153E0C5010E9427112C2F4CE053E0D5
:1017600074C04C30510561F421E02C1B0C2F43E078
:1017700053E0C5010E9427112C2F49EF52E065C0AC
:101780004D30510561F421E02C1B0C2F40EF52E04D
:10179000C5010E9427112C2F45EE52E056C04E3055
:1017A0005105B1F411E0EF2809F010E021E01C9F91
:1017B000201911240C2F4EEC52E0B401C5010E94F7
:1017C0002711112309F445C02C2F4FEA52E03DC0E8
:1017D0004F30510561F421E02C1B0C2F46EA52E0FA
:1017E000C5010E9427112C2F49E952E02EC040313B
:1017F000510561F421E02C1B0C2F40E952E0C5019A
:101800000E9427112C2F43E852E01FC0413151059F
:1018100061F421E02C1B0C2F4AE752E0C5010E9425
:1018200027112C2F4FE652E010C04231510589F4A8
:1018300021E02C1B0C2F48E552E0C5010E94271126
:10184000EF2839F42C2F42E352E0B401C5010E9485
:101850002711DF91CF911F910F91FF90EF90DF90B3
:10186000CF90BF90AF909F908F907F906F905F9040
:101870004F9008959C01240F311D1216130674F524
:10188000803891055CF5FC0197FF02C0E0E0F0E0D4
:101890002138310514F020E830E02E1BAB014770F1
:1018A000552781E001C0880F4A95EAF777FF02C00B
:1018B000695F7F4F93E0759567959A95E1F7769507
:1018C000762F662777956795E60FF71FE15CFC4F4B
:1018D000215020F09081982B9193FACF0895FC012C
:1018E00080913003811103C08FEF9FEF08959FB760
:1018F000F89482E08093E9002091F20030E0121623
:10190000130614F421E030E02115310559F0289830
:1019100084E680932F038091F10080838091F20010
:10192000882319F09FBFC90108958BE68093E800D2
:10193000F9CF2FB7F89483E08093E9009091E80005
:10194000892F807295FF04C09091F20080E4891B7A
:101950002FBF0895CF93DF931F92CDB7DEB7698372
:10196000DC01ED91FC910280F381E02D41E050E03B
:10197000BE016F5F7F4F09950F90DF91CF91089562
:1019800083E08093E9008091F200882319F08AE3D4
:101990008093E80008950E94990C90E00895CF93F9
:1019A000DF931F92CDB7DEB7FC018485958597FD47
:1019B00005C02FEF3FEF358724870BC0CE0101967E
:1019C0000E946F0C019719F4898190E002C08FEF9B
:1019D0009FEF0F90DF91CF9108950F931F93CF93B7
:1019E000DF931F92CDB7DEB78C01FC01848595850E
:1019F00097FF0EC0CE0101960E946F0C019719F45B
:101A0000298130E002C02FEF3FEFF80135872487AE
:101A1000F801848595850F90DF91CF911F910F91EB
:101A20000895FC018485958597FD0BC09FB7F894B8
:101A300082E08093E9008091F2009FBF90E00196E0
:101A400008959FB7F89482E08093E9008091F200B6
:101A50009FBF90E008958F929F92AF92BF92CF92D6
:101A6000DF92EF92FF920F931F93CF93DF935C016E
:101A70006B017A0180912901882309F45BC0809170
:101A80003003882309F456C080912E0380FF05C0DF
:101A90008091E00082608093E000E70110E00AEFAF
:101AA00083E0882E9AE3992E2097D9F10E94990C11
:101AB00081110AC0015009F43DC061E070E080E08E
:101AC00090E00E944F06F0CF282F30E0C217D307D6
:101AD0000CF48C2F4FB7F8948092E9009091E800B5
:101AE00095FF1DC0282F30E0C21BD30BF601982FA5
:101AF000915020F081918093F100FACFC20ED31E55
:101B0000112319F09092E80009C08091E80085FD4A
:101B100006C09092E80011E0209709F010E04FBF56
:101B2000C3CF1111C3CF5D9884E6809331031E1497
:101B30001F0444F081E090E0F5019383828380E00C
:101B400090E001C0C701DF91CF911F910F91FF90ED
:101B5000EF90DF90CF90BF90AF909F908F900895BF
:101B6000EF92FF920F931F93CF93DF93EC018B01C2
:101B7000E42EF22E6034710510F40E943A0CB80184
:101B80006F0D711D615071096034710520F44E2D87
:101B9000CE010E943A0C21E04F2DB801CE010E94E7
:101BA0001616CE018E0D911D21E04F2DB801019723
:101BB000DF91CF911F910F91FF90EF900C9416162B
:101BC0008091360381110DC082E08093320384E05E
:101BD00080933303109235031092340381E0809395
:101BE000360382E393E008951F920F920FB60F928F
:101BF00011248F939F938091E1009091E100937F56
:101C00009093E10083FF0FC01092E90091E0909360
:101C1000EB001092EC0092E39093ED0010923003F1
:101C200098E09093F00082FF20C093E09093E90049
:101C30009091F200992319F09AE39093E800909123
:101C40003103992339F090913103915090933103EE
:101C5000992389F190912F03992339F090912F03C3
:101C6000915090932F03992341F184FF10C08091EC
:101C7000E2008E7E81608093E2008091E1008F7EA1
:101C80008093E10080912E038E7E806111C080FFE1
:101C900016C08091E2008E7E80618093E200809188
:101CA000E1008E7E8093E10080912E038E7E816024
:101CB00080932E0304C05D9ACDCF289AD6CF9F91F2
:101CC0008F910F900FBE0F901F9018951F920F923B
:101CD0000FB60F921124CF92DF92EF92FF920F93E3
:101CE0001F932F933F934F935F936F937F938F93A4
:101CF0009F93AF93BF93EF93FF93CF93DF93CDB7B2
:101D0000DEB76C97DEBFCDBF1092E9008091E8008E
:101D100083FFEDC168E0CE0145960E94D41682EFA4
:101D20008093E8008D8987FF05C09091E80090FFBF
:101D3000FCCF03C09EEF9093E800982F907609F0B7
:101D4000C6C09E892F89188D91110CC0803829F446
:101D500080912D038093F10002C01092F100109247
:101D6000F10048C1422F50E0512B913051F48111C4
:101D700041C14130510509F03DC180912D038D7F56
:101D80000BC0933061F4811135C14130510509F028
:101D900031C180912D03826080932D032BC195303A
:101DA00041F48091E80080FFFCCF20682093E3009D
:101DB00021C1963009F05FC0EB8CFC8C1092E900D9
:101DC00010922B0310922A03123091F510922903DE
:101DD000109228030E94A21699E0BE016F5F7F4F08
:101DE000DB01E92F1D92EA95E9F799831A8391E0C7
:101DF0009E8390EA98879AEF998720912A033091E1
:101E00002B03275F3F4F3C832B838D831092E90088
:101E100010922B0310922A03F0922903E0922803D8
:101E200049E050E080E00E947B160E94A216E2C0CA
:101E3000F0922903E09228030E94E00DDC01129643
:101E4000ED90FC901397E114F10409F4C0C0D701A0
:101E5000ED91FC910480F581E02DBE016B5E7F4F1A
:101E6000C7010995009719F00CF0C4C0C7C0F7016D
:101E7000E084F184E8CF973009F4C0C0983021F4B1
:101E800081E08093F100B6C0993009F0B3C083704F
:101E900009F0B4C0EFE2F1E081E021E036E39081A7
:101EA000992361F08093E9002093EB009191909346
:101EB000EC003093ED008F5F873089F78EE78093D9
:101EC000EA001092EA008F898093300393C08B8DD3
:101ED0009C8D1092E90010922B0310922A0390938C
:101EE000290380932803898D811156C08E899D898D
:101EF000913A59F4813209F081C047E050E062E242
:101F000071E080E00E947B1675C0913209F076C0C6
:101F1000833289F4888D90E0982F88272F89822B2F
:101F2000A0E0B0E080931E0190931F01A0932001D8
:101F3000B09321015FC0803269F48091E80082FF94
:101F4000FCCF67E082E291E00E94D4168BEF809391
:101F5000E80006C0823209F04DC08F8980932901C4
:101F600080912C03882319F0EEEFFAE002C0E0E044
:101F7000F8E08091220190912301A0912401B09179
:101F80002501803B9440A105B10509F07BC08091FB
:101F9000290180FF93C076C00E94E00DDC011296FB
:101FA0000D911C9113970115110541F1D801ED9187
:101FB000FC910190F081E02DBE016B5E7F4FC80166
:101FC0000995811117C0F80100851185ECCF1130FA
:101FD00009F44EC0133091F48F89882309F445C069
:101FE000823081F440E867E085E19BE00E94C534DF
:101FF000882321F08EEF8093E80079C081E28093FE
:10200000EB0075C0813029F440E86BE089E09BE08B
:10201000EDCF833099F70E94E00DDC011296ED9030
:10202000FC9013978E010F5F1F4F6801E114F104BC
:1020300079F0D701ED91FC910680F781E02DB80190
:10204000C7010995080F111DF701E084F184EECF57
:10205000D8011C92F60101900020E9F73197BF01E9
:102060006C197D0940E0C601C1CF63EF7AE002C080
:1020700067EF7AE06115710509F2FB01449150E0C8
:1020800080E840CF0FB6F894A895809160008861F1
:1020900080936000109260000FBEA895EE3F2AE08A
:1020A000F20739F08091FE0A9091FF0A91838083B4
:1020B000A1CF1092FF0A1092FE0A9CCFEE3F8AE059
:1020C000F80731F0808191819093FF0A8093FE0A96
:1020D00087E797E7918380839BE088E10FB6F894C8
:1020E000A895809360000FBE9093600083CF6C969C
:1020F0000FB6F894DEBF0FBECDBFDF91CF91FF9139
:10210000EF91BF91AF919F918F917F916F915F916F
:102110004F913F912F911F910F91FF90EF90DF9082
:10212000CF900F900FBE0F901F9018958F929F9297
:10213000AF92BF920F931F93CF93DF93CDB7DEB7CC
:10214000A1970FB6F894DEBF0FBECDBF19A24230E3
:1021500008F44AE08E010F5D1F4F842E912CA12CB4
:10216000B12CA50194010E94A635E62FB901CA0140
:1021700001501109EA3014F4E05D01C0E95CD801B6
:10218000EC93232B242B252B61F70115110571F0FE
:10219000F80101900020E9F73197AF01401B510B86
:1021A000B8018FE497E00E94DB0502C080E090E078
:1021B000A1960FB6F894DEBF0FBECDBFDF91CF91D1
:1021C0001F910F91BF90AF909F908F9008950F93A4
:1021D0001F93CF93DF938C01C0E0D0E0F801EC0FA8
:1021E000FD1F6491662371F0E0914F07F091500755
:1021F0000190F081E02D8FE497E00995892B11F093
:102200002196ECCFCE01DF91CF911F910F910895D0
:1022100080913F038EBDE0E4F3E081910DB407FEB1
:10222000FDCF8EBD87E0EF33F807B9F70DB407FE99
:10223000FDCF089580E0EFE3F3E081118FEF0024FC
:1022400081938193819381930394D1F708952F9281
:102250003F924F925F926F927F928F929F92AF9236
:10226000BF92CF92DF92EF92FF920F931F93CF9383
:10227000DF93CDB7DEB764970FB6F894DEBF0FBE1D
:10228000CDBF2C014A01FA0144913196E491942F7B
:102290009F779F5F892F8695481A5108292E312CE8
:1022A000C201820D931D97FDE9C1F0E84F1651045C
:1022B0000CF0E4C13E2F3F733F5F832F8695DB0117
:1022C000A81BB109CD01BD01630F711D77FDD6C1FA
:1022D000A034B1050CF0D2C1B42EBB1CBB24BB1C76
:1022E00071E0E6FF70E0EE1FEE27EE1FE887AC011D
:1022F00097FF04C044275527481B590B6A01B7E0D4
:10230000CB22DD24AC0197FF02C0495F5F4FDA01A9
:1023100043E0B595A7954A95E1F7BA83A98397FF5E
:102320000CC0C114D10449F01197BA83A98388E085
:1023300090E0FC01EC19FD096F0181E090E0AC0137
:102340000C2C02C0440F551F0A94E2F75A874987A4
:10235000832F869586958695377009F08F5FA82F15
:10236000880FBB0BBF83AE83B02FB270BB8701FF5A
:1023700008C0EE80FF80E1E0EE1AF10881E07827E6
:1023800002C0E12CF12C102F11701D8300FF03C03F
:10239000D101119702C0A0E0B0E037E040E150E089
:1023A00060E0612C712CAA24A394C10101979E873F
:1023B0008D878E819F81E816F9060CF05FC1F7FCCE
:1023C0005DC18A0141E050E05C834B83F80193E0FA
:1023D000F695E7959A95E1F7E80DF91DE491F0E09F
:1023E000C8018770992702C0F595E7958A95E2F7AD
:1023F000A8014F5F5F4FE0FF08C00B811C810F5F9A
:102400001F4F1C830B838A01E1CF8B819C81019735
:10241000C1F4FA0183E0F695E7958A95E1F7E80DB6
:10242000F91D849190E04770552702C095958795D6
:102430004A95E2F7817099270196A8014E5F5F4F98
:1024400042C00B811C8101501109188B0F8781E05C
:1024500090E00F8402C0880F991F0A94E2F701965A
:102460001A8A198AFA0113E0F695E7951A95E1F7A9
:10247000E80DF91DE4910E2F10E01C8B0B8BFA0177
:10248000E770FF27FC83EB830B8002C0159507954F
:102490000A94E2F700FF0AC0E1E0F0E0098802C018
:1024A000EE0FFF1F0A94E2F78E0F9F1F4F5F5F4FE3
:1024B00009891A890F5F1F4F1A8B098BEF85F889DD
:1024C0000E171F077CF2188A1F86FA2DF81BFC874F
:1024D0000F8518890817190708F0CCC0032F10E0E2
:1024E0001C830B838C01EF85F8890E1B1F0BEB817E
:1024F000FC81B1100DC0E017F10718F40F851889A1
:102500002AC01C85310FEF853E0F988B8F8739C00D
:10251000E017F10730F53730C9F0772369F007E0AD
:1025200010E00E1B1F0BEFEFF0E002C0F595E795F2
:102530000A95E2F78F0108C000E81FEF0B8002C088
:10254000169507950A94E2F7602B01C06FEF0F858F
:102550001889EB81FC810E0F1F1F188B0F8730E04D
:1025600010C0772319F0EB81FC8107C007E010E071
:10257000EB81FC810E1B1F0BF801EB5CFE4FE08131
:102580006E2B315008F070C0662309F445C03981C4
:102590003E0D38300CF040C0FD01E40DF51DE03873
:1025A000F105D0F5E985FA856E9F80016F9F100DCA
:1025B000112437FD17C0F20160E83603E00DF11D6C
:1025C0001124EA0FFB1FE15CFC4FFA8BE98B608161
:1025D000222311F0602B03C0E02FE0956E23E989E0
:1025E000FA896083C114D104B9F03730A9F03F3FB4
:1025F0009CF0F20160E83603E00DF11D1124EA0FB2
:10260000FB1FE154FC4F3081222311F0312B03C01A
:10261000612F609536233083088501117A251FEFDD
:10262000611A710A3D81332311F0119701C011968F
:102630006214730484F06B85662321F0A1E0EA1A2A
:10264000F10803C0BFEFEB1AFB0A0D81002331F044
:10265000AD85BE8505C037E060E006C0A0E0B0E013
:1026600037E060E0612C712CEF85F8893196F88BAA
:10267000EF872ECF1A2D1B19B12E9BCE64960FB665
:10268000F894DEBF0FBECDBFDF91CF911F910F91A8
:10269000FF90EF90DF90CF90BF90AF909F908F9082
:1026A0007F906F905F904F903F902F9008952F9262
:1026B0003F924F925F926F927F928F929F92AF92D2
:1026C000BF92CF92DF92EF92FF920F931F93CF931F
:1026D000DF93CDB7DEB763970FB6F894DEBF0FBEBA
:1026E000CDBF4C015B015B834A832D872DB73EB77D
:1026F0003B872A8720E030E040E85FE3C701B6016E
:102700000E940137181634F4C12CD12C90E8E92E20
:102710009FE3F92EEA81FB81349031962490832D3A
:102720008F778F5F8E83682E712CB301072C000C7E
:10273000880B990B0E947536A70196010E940637F7
:102740000E944436162F862F86959401281B310946
:1027500038872F83C901810F911D97FDFFC1203854
:1027600031050CF0FBC1822D8F738F5F8983882E1A
:10277000912CB401092C000C880B990B0E94753622
:10278000A70196010E9406370E944436C62E862F66
:1027900086952501481A5108C2018C0D911D97FD9F
:1027A000DDC130E4431651040CF0D8C1331C33248E
:1027B000331C398641E04B8B26FE1B8A221C2224C7
:1027C000221C2C862980269426942694312C8981DB
:1027D000877019F05FEF251A350A8DB79EB78619F5
:1027E00097090FB6F8949EBF0FBE8DBF2DB73EB7A9
:1027F0002F5F3F4F3D832C839C81E92FFD812FEF7D
:1028000021938E2F891B3E818317D0F320E030E087
:10281000F12CE12FF0E0402F4170E42EBB24BA945C
:10282000B10EF11699F0C901BF010E949737EE2051
:1028300019F08B2D8F1901C08F2DAC81BD81A60F92
:10284000B71F8C93F394260D371DEBCF8DB79EB732
:10285000881999090FB6F8949EBF0FBE8DBFADB70A
:10286000BEB711964D019A2FFD012FEF21938E2FA8
:10287000891B19818117D0F3212F30E0E0E0F0E0CF
:1028800010E0EC2CF12C0270DD24DA94DC0C1C1529
:1028900091F0CF01B7010E949737002319F08D2DD9
:1028A000811B01C0812FD401A60FB71F8C931F5F1E
:1028B000E20FF31FECCF17E080E190E050E0E12C55
:1028C000F12C6624639425E331E048E0420F4E8703
:1028D0002F2D30E0221533050CF040C14FEFF416D8
:1028E00009F43CC1BC0121E030E0FB0183E0F69536
:1028F000E7958A95E1F78A819B81E80FF91FE491BA
:10290000F0E0CB018770992702C0F595E7958A958D
:10291000E2F7CB010196E0FF04C02F5F3F4FBC01FF
:10292000E4CF21303105E1F4FC0103E0F695E795B1
:102930000A95E1F7AA81BB81EA0FFB1FA490B12C95
:102940008770992702C0B594A7948A95E2F7B1E001
:10295000AB22BB24EFEFAE1ABE0ACB01029636C003
:1029600021503109AA24A394B12C022E02C0AA0C32
:10297000BB1C0A94E2F7FFEFAF1ABF0A60E070E0F9
:10298000FC01A3E0F695E795AA95E1F7AA81BB8142
:10299000EA0FFB1FE491F0E0DC01A770BB2702C047
:1029A000F595E795AA95E2F7E0FF0AC0E1E0F0E0CF
:1029B000062E02C0EE0FFF1F0A94E2F7AE0EBF1EF6
:1029C00001966F5F7F4F62177307D4F220E030E00B
:1029D000B62DBA19B9832A153B0508F0BAC0612F84
:1029E00070E0F501E21BF30B0985011108C06E17B9
:1029F0007F0720F14981140F120F950130C06E1727
:102A00007F0700F51730C9F00B89002369F0E7E074
:102A1000F0E0E61BF70BAFEFB0E002C0B595A7956D
:102A2000EA95E2F7FD0107C0E0E8FFEF02C0F69586
:102A3000E7951A95E2F75E2B01C05FEF260F371F6F
:102A400010E00DC00B89002311F0FB0104C0E7E08A
:102A5000F0E0E61BF70BEB5CFE4F6081562B11504C
:102A600008F074C0EC81FD81EE0DF11D60816F3FB7
:102A700041F41C85112309F45EC01B8916251B8BAC
:102A80005AC00F811885060F111DB80100381105B5
:102A900080F7D401E8E0FE9EA00DB11D1124B88B93
:102AA000AF87A5E3B1E0EF85F8894191F88BEF8717
:102AB0004F3FE1F1EC91E523C9F1D42ED40CED2D7B
:102AC000E695E695E695E83088F5F0E00D2D07707F
:102AD000D02E1D85F695FE2FEE27F795E795E60F8C
:102AE000F71F112399F08F01015C1C4F1A8B098B82
:102AF000CD2CD12CF601EB5CFE4F6F01F8017080FC
:102B0000F601D0807D28F801708210C08F01015C31
:102B10001C4F1A8B098BCD2CD12CF601EB5CFE4F90
:102B2000D080D094F801C080DC20D08211960E8530
:102B30000A13B9CF9ECFE3940E81E01628F0F394E8
:102B400017E050E0E12C02C017E050E02F5F3F4F4C
:102B500042CF262D3985231B2987BACE0A851B85AE
:102B60000FB6F8941EBF0FBE0DBF0A851B850FB6AA
:102B7000F8941EBF0FBE0DBF63960FB6F894DEBF6C
:102B80000FBECDBFDF91CF911F910F91FF90EF90BE
:102B9000DF90CF90BF90AF909F908F907F906F907D
:102BA0005F904F903F902F900895CF92DF92EF92D9
:102BB000FF92CF93DF936C01990FEE08FF08F7FEA9
:102BC0001FC0E0914F07F09150070190F081E02D78
:102BD0006DE28FE497E00995EC0166277727CB013A
:102BE0006C197D098E099F094AE00E9496108C0F8E
:102BF0009D1FDF91CF91FF90EF90DF90CF900895D0
:102C00004AE0C701B601DF91CF91FF90EF90DF90CE
:102C1000CF900C94961020915907282329F4909175
:102C20005807982381E009F480E00895CF92DF925D
:102C3000EF92FF920F931F93CF93DF931F92CDB725
:102C4000DEB77C018B01040F111D6B0177FF14C0EF
:102C5000C12CD12C11C0C616D706ACF480E8E816FA
:102C6000F10438F4422FB601C70129830E941608E7
:102C700029818FEFC81AD80AB801013411055CF315
:102C800060E470E0E8CF0F90DF91CF911F910F913A
:102C9000FF90EF90DF90CF90089540912A035091DC
:102CA0002B03209128033091290342175307B4F4D2
:102CB0009091E8009570E1F39091E80092FD19C0C1
:102CC0008093F10080912A0390912B0301968F73DA
:102CD0009927892B19F48EEF8093E80080912A03BD
:102CE00090912B03019690932B0380932A0381E00C
:102CF000089580E00895DF92EF92FF920F931F9363
:102D0000CF93DF93D82E8A017B01E40EF51EEB01F1
:102D1000CE15DF0571F0D7FE03C0FE01849101C01E
:102D200088810E944D1621968111F2CF8FEF9FEF7F
:102D300001C0C801DF91CF911F910F91FF90EF90DB
:102D4000DF9008950F931F93CF93DF931F92CDB71A
:102D5000DEB782E0898342E450E06DE17BE080E809
:102D60000E947B160E94E00DDC0112960D911C91D1
:102D700013970115110569F0D801ED91FC910280BE
:102D8000F381E02DBE016F5F7F4FC801099597FF6A
:102D900007C089810F90DF91CF911F910F91089506
:102DA000F80100851185E5CF615030F02091F100E8
:102DB000FC0120830196F8CF289884E680932F03A6
:102DC0000895CF93DF93CDB7DEB76A970FB6F89427
:102DD000DEBF0FBECDBF789484B5826084BD84B55C
:102DE000816084BD85B5826085BD85B5816085BD06
:102DF00080916E00816080936E00109281008091BE
:102E00008100826080938100809181008160809345
:102E1000810080918000816080938000809191008A
:102E200082608093910080919100816080939100F5
:102E3000809190008160809390008091C1008460B7
:102E40008093C1008091C10082608093C100809115
:102E5000C10081608093C1008091C3008160809334
:102E6000C3008091C00082608093C0008091C20046
:102E700081608093C20080917A00846080937A00A0
:102E800080917A00826080937A0080917A008160DC
:102E900080937A0080917A00806880937A00109203
:102EA000300310922D0310922E038091D700816081
:102EB0008093D70080EA8093D80089B5806189BD6E
:102EC00089B5826089BD09B400FEFDCF61E070E084
:102ED00080E090E00E944F068091D8008F7C806156
:102EE0008093D8008091E000807F8093E000809103
:102EF000E1008E7E8093E1008DE08093E200559AA0
:102F0000209AEEEFFFE7859194918B3F9C4D19F449
:102F100081E080932C0381EC80937C0085B1806FED
:102F200085B9249884B1866E84B95E9A5F988AB117
:102F3000806D8AB9769A6E9881B3806F81BB8998CB
:102F400080B38D7080BB80E58CBD81E08DBD85E058
:102F500090E00E94E3075F9A85E090E00E94E3071B
:102F60005E985C981CE5E12E11E0F12E1DE01E0D2F
:102F7000F70184910E941008FFEFEF1AFF0A1E115B
:102F8000F7CF5C9A81E88093640081E080936500CC
:102F900000E014E080E00E94100801501109D1F710
:102FA0000E94E80787FF1FC05C9885EA0E9410080E
:102FB0005C9A2E982F982D9880916400806280935F
:102FC00064000E940508FDCF2D980E94E8078478D0
:102FD000843871F00E94E8078471843131F188EC03
:102FE00090E00E94E3070E94E80782FDEDCF3AC01F
:102FF0000E94E10788EC90E00E94E3072F9882E0AE
:1030000090E00E945E358F3F29F06FEF82E090E004
:103010000E94663584EF91E00E94E3072F9A0E9498
:10302000E80784788438D9F3D5CF0E94E10788EC8B
:1030300090E00E94E3072E9882E090E00E945E35C7
:10304000882329F060E082E090E00E94663584EFFA
:1030500091E00E94E3072E9A0E94E8078471843170
:10306000D9F3BDCF0E94E10782E090E00E945E3577
:10307000882331F03E9A3F9A81E08093640104C036
:10308000109264013E983F982E98BEEE4B2E552428
:103090005A9408E010E00E94E80786FF04C02E9AC8
:1030A0002F9A2D9A94C02CEF42162FEF520619F446
:1030B0002E9A2F9806C038E14316510411F42F9A26
:1030C0002D980E941A1140EF44164FEF54068CF4CD
:1030D0000E9408118BE190E00E94E30750EF451633
:1030E0005FEF550609F05BC08AEF90E00E94E307AE
:1030F00056C0920157FE04C02227332724193509F0
:1031000027703327C20157FC0796A3E09595879552
:10311000AA95E1F757FE05C00197B801621B730B32
:103120009B017C01F694FE2CEE24F794E79440E09A
:1031300050E04801821A930AD701A058BF4F5D01A1
:103140008F3FBFEF9B0744F40196485A5F4F7501CC
:10315000403B510589F7BCCFD701AD52BC4F60E071
:1031600070E08F3FEFEF9E0711F40C94DB33FB010F
:10317000E40FF51FE455FF4FE4916D01CA18DB0819
:10318000CE0CDF1CF0E01F01022E01C0220C0A94BD
:10319000EAF7F6017080272820820C94DB33FFEFDA
:1031A0004F1A5F0A29E14216510409F074CF8CEBE3
:1031B00092E00E94E3070E94E107E0915307F0913B
:1031C00054070190F081E02D83E597E0099582E3B3
:1031D00090E00E94E3070E94E8078111F8CF80E1A8
:1031E00080935A078FEE91E00E945E3590E09093B5
:1031F0004F0280934E020EE212E0E0EFEE2EFF242B
:10320000F394C7010E945E35282F30E0D8012D933A
:103210003C932115310519F5C7018C5E9140099742
:1032200018F040E050E002C045E050E0C701855F83
:103230009140059718F080E090E002C086E090E0B1
:10324000840F951FA7014A5F51404530510510F486
:103250002BE030E0280F391FF80131832083FFEF86
:10326000EF1AFF0A0E5F1F4F2FEFE21621E0F20662
:1032700041F62FB7F8948091650190916601A09175
:103280006701B09168012FBF40915F0750916007BF
:10329000609161077091620720916307222349F0D2
:1032A00020915B07821B80936407109263070C9444
:1032B000D13384179507A607B70748F4481B423057
:1032C00010F40C94D1330E9405080C94D13321E002
:1032D0002093630780935B0790935C07A0935D073F
:1032E000B0935E0720915A07820F911DA11DB11D59
:1032F00080935F0790936007A0936107B093620784
:1033000080915607909157070196909357078093A5
:1033100056070E941A1110926807109267071092C0
:1033200066071092650780915807809359070E949D
:10333000E8078093580710921903109218038090A1
:103340001603909017038114910409F0F7C21092AC
:1033500015031092140381E090E090931B01809379
:103360001A0124E030E030931D0120931C0190935A
:1033700011038093100310920D0310920C0310920E
:10338000090310920803109205031092040310928F
:103390000103109200031092FD021092FC02909320
:1033A00013038093120310920F0310920E031092D6
:1033B0000B0310920A031092070310920603109257
:1033C0000303109202031092FF021092FE02109269
:1033D000170110921601E8EEF2E0A4EDB2E01192AE
:1033E00011921D921D9232E0EC3FF307C1F710924B
:1033F000D3021092D20266EC72E02AEB32E08EEA3F
:1034000092E0EAE8F2E0DB011D921D92BD01D901D4
:103410001D921D929D01DC011D921D92CD01118214
:10342000108213821282158214823696B2E0623DB7
:103430007B0749F710928902109288021092870246
:1034400010928602E8E6F2E0AEE5B2E01192119247
:1034500011861086138A128A1D921D9202E0E237AD
:10346000F007A1F780EF90E090935D0280935C02FB
:1034700010925B0210925A02109259021092580256
:103480001092570210925602809154029091550268
:10349000009719F484EF91E00AC08130910519F486
:1034A00088EE93E004C0029731F480ED97E09093AA
:1034B0001501809314018CE190E09093660780934E
:1034C000650788E090E09093680780936707809194
:1034D0005002909151020097A9F485E090E09093FA
:1034E0000301809302018AE090E0909309018093A8
:1034F00008012EE030E030930F0120930E0187E2A7
:1035000092E061C081309105A9F48CE090E0909345
:1035100003018093020186E090E09093090180937B
:10352000080180E190E090930F0180930E018EE1FD
:1035300092E049C082309105A9F489E090E090932F
:103540000301809302018DE090E090930901809344
:1035500008014EE050E050930F0140930E0185E1C9
:1035600092E031C00397A9F483E190E090930301C6
:10357000809302018FE090E090930901809308010D
:1035800081E190E090930F0180930E018BE092E037
:103590001AC08091000190910101909303018093E2
:1035A0000201809106019091070190930901809397
:1035B000080180910C0190910D0190930F0180936F
:1035C0000E0186E092E00E94E7100CE110E01093FB
:1035D00066070093650780E190E090936807809309
:1035E000670783E092E00E94E71080915402909177
:1035F000550201960E94D515109366070093650742
:1036000088E190E0909368078093670787EF91E0E7
:103610000E94E710109366070093650780E290E030
:1036200090936807809367078AEE91E00E94E71005
:103630008CE590E090936607809365071092680789
:103640001092670780914E0290914F02019759F4B2
:1036500084EE91E00E94E71070E0A72E71E0B72E93
:1036600000E210E028C08DED91E0F4CF21E030E0E1
:1036700041E050E0B701C8010E941909F501EC0DC5
:10368000FD1D4081518120E030E0B701C8010E945A
:10369000190958E0E50EF11C66E0C60ED11C72E176
:1036A000C716D10419F7005D1F4F84E0A80EB11CA6
:1036B0000038110531F0C12CD12C6CE2E62EF12C32
:1036C000D5CF20914C0230914D02C90153E0880FB3
:1036D000991F5A95E1F744E150E0509366074093F3
:1036E000650790936807809367072B30310559F47D
:1036F00084E590E0909366078093650710926807D1
:10370000109267070EC0283031055CF024E430E0E9
:1037100030936607209365074897909368078093D6
:1037200067078BED91E00E94E7108CE190E09093A9
:10373000660780936507109268071092670781ED0E
:1037400091E00E94E71000914C0210914D0201306F
:103750001105C1F48091020190910301909305013C
:1037600080930401809108019091090190930B01CD
:1037700080930A0180910E0190910F0190931101A5
:103780008093100180E80E940B16882319F0C8016D
:103790000B9607C080E10E940B16882351F0C801E8
:1037A00001966CE070E00E94AB3790934D028093DD
:1037B0004C0288E00E940B16811106C084E00E9432
:1037C0000B16882309F483C020914C0230914D02DE
:1037D00041E050E02130310511F040E050E08091AF
:1037E000500290915102840F951F65E070E00E9495
:1037F000AB37909351028093500241E050E0223069
:10380000310511F040E050E0809154029091550252
:10381000840F951F63E070E00E94AB3790935502D0
:10382000809354022330310511F00C94F83382E078
:1038300090E041E050E02115310511F040E050E00A
:10384000840F951F2430310519F443E0842E912C08
:10385000880D991D90931703809316032B30310523
:1038600091F480914E0290914F02019662E070E0D7
:103870000E94AB3780934E0290934F02682F8FEED9
:1038800091E00E94663580914C0290914D02853006
:103890009105ECF0059763E070E00E94AB379B0167
:1038A000220F331FBC01660F771F680F791F620F4D
:1038B000731F660F771FFB01E050FF4F80819181DE
:1038C000019667E170E00E94AB3791838083C090DE
:1038D0004C02D0904D02C601059763E070E00E9453
:1038E000AB37660F771FFBE0EF2EF12C9C01220F08
:1038F000331F820F931F860F971F880F991FDC01BC
:10390000A050BF4F5D01B5E0CB16D1048CF0EBE0C9
:10391000CE16D10469F0D5010D911C91C8010E9409
:10392000D409892B29F40F5F1F4FF5011183008300
:10393000F1E0EF1AF10839F70C949A3302E080169F
:10394000910409F013C1809114039091150301961D
:10395000909315038093140380E80E940B16009146
:103960004C0210914D02882321F0C8010F960C944F
:10397000FE3380E10E940B16882321F0C8010196D6
:103980000C94FE3380E20E940B1681110C94FC33E0
:1039900080E40E940B1681110C94FC3388E00E9495
:1039A0000B16811105C084E00E940B168823B9F024
:1039B00080914C0290914D028F30910511F40C943E
:1039C0000834880F991FFC01E25DFD4F80819181D1
:1039D000019667E170E00E94AB3791838083C090CD
:1039E0004C02D0904D023BE0E32EF12CC601880F33
:1039F000991F9C01225D3D4F5901FFE0CF16D10474
:103A000069F0D5010D911C91C8010E94D409892B40
:103A100029F40F5F1F4FF50111830083F1E0EF1AC6
:103A2000F10859F79EE2E92E92E0F92E28EF622E76
:103A300077247A9483010770112783E0000F111F08
:103A40008A95E1F7580124E0A20EB11C38E0631614
:103A5000710418F084E090E002C084E490E021E07A
:103A600030E041E050E0B5010E9419094701D7015B
:103A7000CD90DC90B8E06B16710418F084E090E013
:103A800002C084E490E020E030E0A601B5010E948D
:103A90001909E8E06E16710418F089E090E002C0A0
:103AA00089E490E090936607809365071093680718
:103AB00000936707C6010E944C0AF8E06F16710474
:103AC00018F08EE290E002C08EE690E090936607D8
:103AD00080936507109368070093670702E0E00E84
:103AE000F11CD4018D919C910E940D0A009719F050
:103AF0000E94D51504C08FEC91E00E94E710BFEF43
:103B00006B1A7B0AE7E06E16710409F093CF89E423
:103B100090E0909366078093650788E390E0909328
:103B20006807809367078AEC91E00E94E710209174
:103B30004C0230914D02C90168E070E00E94AB3741
:103B4000BC01B3E0660F771FBA95E1F72850310941
:103B50002830310518F089E090E002C089E490E057
:103B600028E045E20E94B00D0C949A33F3E08F16E2
:103B70009104A1F5809104019091050190930301B6
:103B80008093020180910A0190910B0190930901A9
:103B900080930801809110019091110190930F0181
:103BA00080930E0182E090E09093170180931601BC
:103BB00021E030E0309317032093160390935302D3
:103BC00080935202909355028093540288EE93E0C2
:103BD00090931501809314010C949A338A94892848
:103BE00011F00C949A33809114039091150301966F
:103BF000909315038093140306975CF4FEED8F2ECB
:103C0000F1E09F2EA8E1AA2EB12C612C712C0C940E
:103C10007F2F8091560290915702892B79F710924D
:103C20002D0210922C028091160190911701892B80
:103C300009F0ADC08091280290912902892B09F0EA
:103C4000A6C00E94E80785FF26C0E0911A01F09106
:103C50001B01309701F13197CF01880F991FE80FB1
:103C6000F91F8091100390911103E80FF91FEE0FD7
:103C7000FF1FEC5FFD4F80819181892B61F482E011
:103C800090E0909329028093280284E090E0909342
:103C90000503809304030E94E80786FF27C0E09194
:103CA0001A01F0911B01E230F10501F13196CF01CB
:103CB000880F991FE80FF91F80911003909111034D
:103CC000E80FF91FEE0FFF1FEC5FFD4F8081918120
:103CD000892B61F482E090E090932902809328027E
:103CE00023E030E030930503209304030E94E807AB
:103CF00087FF25C080911003909111030097F9F080
:103D0000E0911A01F0911B019F01220F331FE20F76
:103D1000F31FE80FF91FEE0FFF1FEE5FFD4F8081CD
:103D20009181892B61F482E090E090932902809345
:103D3000280281E090E090930503809304030E94A1
:103D4000E80784FF24C08091100390911103823012
:103D50009105ECF4E0911A01F0911B019F01220FF3
:103D6000331FE20FF31FE80FF91FEE0FFF1FEA5F8B
:103D7000FD4F80819181892B51F482E090E09093F6
:103D8000290280932802909305038093040388E01E
:103D90000E940B16882301F180915A0290915B02D8
:103DA000019665E070E00E94AB3790935B028093D0
:103DB0005A02880F991FFC01E25AFD4F80819181C0
:103DC000892B21F410925B0210925A0280E190E05C
:103DD000909319038093180384E00E940B168823A4
:103DE00009F441C08091280290912902892BD9F5CC
:103DF000E0915A02F0915B027F01EE0CFF1CF7018B
:103E0000E25AFD4FC080D180C114D10461F1D0923B
:103E10000503C0920403C6010E94940990932902ED
:103E2000809328020091580210915902C6010E9405
:103E3000D4090817190751F420915C0230915D02F2
:103E4000265E3F4F30935D0220935C0290935902AF
:103E500080935802F701E25AFD4F118210821092AE
:103E60005B0210925A0220915C0230915D022F5F3A
:103E70003F4F30935D0220935C02E8E6F2E0DF0101
:103E800080E090E04D915D91452B09F0019642E074
:103E9000A638B407B9F79093870280938602892BDE
:103EA000B1F448E652E06EE272E0DB018D919D9143
:103EB000BD01DA018D939D93AD01B2E06C347B07B7
:103EC000A1F78FE090E09093870280938602819122
:103ED0009191892B41F480819181DF0112978D931B
:103EE0009C931182108202E0E438F00781F7809100
:103EF000660290916702892B31F021353105E4F19A
:103F000081E590E035C021353105B4F1209186027C
:103F100030918702032E000C440B550B21153105FF
:103F20004105510571F02B8B3C8B4D8B5E8B0E94B4
:103F300050352B893C894D895E890E9474359B01DF
:103F4000AC013093030220930202220F331FF901C8
:103F5000E859FD4F808191819093670280936602BA
:103F60001182108280915C0290915D0280559109CE
:103F700090935D0280935C02EEE5F2E08191919175
:103F8000892B41F480819181DF0112978D939C935D
:103F90001182108212E0E636F10781F726E131E066
:103FA0003C832B8380E0E82E81E0F82E08E212E0CB
:103FB00018870F8304E013E0188B0F8792E5A92E72
:103FC00092E0B92E2CEFC22E22E0D22E28E232E06F
:103FD0003A8329833AE0832E912C45E0242E312C1C
:103FE00054E1452E512CAB81BC818D919D91BC83B8
:103FF000AB83892B09F477C0E981FA8180819181B3
:10400000892B09F070C0D6012D913C9111972F5F3B
:104010003F4F2D933C93C901B4010E94AB378230CE
:104020009105C1F4F50180819181009729F4A9815E
:10403000BA814D925C920BC0019729F4E981FA8113
:104040009182808204C0A981BA812D923C9227E19D
:1040500030E00FC0892B89F4D5018D919C91E4E06B
:10406000F0E0E81BF90BA981BA81ED93FC9328E0FD
:1040700030E0F8013183208336C0C90169E170E086
:104080000E94AB370B9721F4D7016D907C9021C033
:10409000C90162E370E00E94AB378E9771F4F701BB
:1040A00066807780C3010E949409A981BA818D93AB
:1040B0009C93F8017182608216C0C90164E670E0C9
:1040C0000E94AB37C39779F4D7011C966D907C9012
:1040D0001D97C3010E949409E981FA81918380832D
:1040E000D8016D927C92B2E0EB0EF11C29813A81ED
:1040F0002E5F3F4F3A8329830E5F1F4F32E0A30E9E
:10410000B11C42E0C40ED11C54E0E51651E0F506A6
:1041100009F069CF60911803709119034AE852E0E1
:1041200020E030E0812C912CC401820F931FFC0110
:10413000E252FE4F11821082FC01EC5FFD4F1182B2
:104140001082FA01E80DF91D808191811816190677
:1041500044F48330910511F461E070E0019791839C
:10416000808382E0880E911C96E089169104E1F626
:104170002A5F3F4F4A5F5F4F2432310599F67093B3
:104180001903609318038091C4029091C502181618
:104190001906FCF41092BB021092BA021092C702E8
:1041A0001092C602E091D201F091D301CF01880FA5
:1041B000991FE80FF91F8091C6019091C701E80F80
:1041C000F91FEE0FFF1FE657FD4F85E090E091834A
:1041D00080838091C2029091C30218161906FCF4E4
:1041E0001092BB021092BA021092C7021092C6023D
:1041F000E091D201F091D301CF01880F991FE80F10
:10420000F91F8091C6019091C701E80FF91FEE0FC9
:10421000FF1FE657FD4F85E090E09183808346ECD9
:1042200051E05C834B83EEEAF2E0FC87EB870AEB1C
:1042300011E01E830D832EEA31E03E872D87B90100
:10424000A8019F0186EC91E0E2EDAE2EE1E0BE2EEA
:10425000F6ECCF2EF2E0DF2EEAEBF2E001911191C5
:1042600010161106CCF1E080F1808F010250110987
:10427000D801ED92FC92D60112960D911C911397E4
:104280000D931C93D50112960D911C9113970D93CC
:104290001C93DC0112960D911C9113970D931C93A6
:1042A000D90112960D911C9113970D931C93DA016D
:1042B00012960D911C9113970D931C93DB0112968E
:1042C0000D911C9113970D931C9311821082D601AE
:1042D00013961C921E921297B2E0CB0ED11C02E0F4
:1042E000A00EB11C02962E5F3F4F4E5F5F4F6E5F78
:1042F0007F4F12E0E43CF10709F0B0CF21E0821AD1
:10430000910809F08CCF40918802509189025A831C
:104310004983809114039091150364E170E00E9439
:10432000AB379A8B898BE090D202F090D3026091E8
:104330001803709119037A876987B6EC6B2EB2E087
:104340007B2E12EDA12E11E0B12E0AEB402E02E0E1
:10435000502E212C312C04E610E0D2018D919C913D
:10436000009709F4AFC2ED81FE812081318141E0E7
:1043700050E01216130614F040E050E0241B350BF9
:10438000ED81FE8131832083ED85FE854081518161
:1043900061E070E04115510511F460E070E0461BEA
:1043A000570BED85FE8551834083EB85FC8540816D
:1043B00051814230510561F4D5014D915C911197C5
:1043C0004115510591F0415051094D935C930DC039
:1043D0004130510551F4F50140815181453051057D
:1043E00021F04F5F5F4F51834083232BF1F0D301C6
:1043F0002D913C91232BC9F0F501808191819C0185
:10440000220F331F280F391FEB81FC81808191819E
:10441000820F931FFC01EE0FFF1FE252FE4FCC24D0
:10442000C394D12CD182C0824AC2D5012D913C9136
:10443000AB81BC81ED91FC91D901AA0FBB1FA20FEA
:10444000B31FAE0FBF1FAA0FBB1FAC5FBD4FCC2465
:10445000C394D12CCD92DC92D3014D915C9142302A
:104460005105C9F5C988DA88CD2809F07DC1C70191
:10447000880F991FDC01AC52BD4F41E050E04D93D5
:104480005C93DC01A656BE4FA90164E0440F551FA2
:104490006A95E1F7485E5F4F4D935C93DC01AA5744
:1044A000BE4FED93FC93DC01A851BD4F41E050E0BD
:1044B0002330310514F440E050E04D935C93C70184
:1044C00001966AE070E00E94AB377C0164E070E026
:1044D0007A87698749C14330510509F045C184365F
:1044E000910509F441C1181619060CF03DC125309B
:1044F0003105F9F4A90141505109BA01660F771F3E
:10450000460F571F4E0F5F1F440F551FDA01A2526F
:10451000BE4FB801681B790B6D937C93DA01A657E7
:10452000BD4F44E0C42ED12CCD92DC92309709F5DA
:104530003FC0A9014F5F5F4FBA01660F771F460F5B
:10454000571F4E0F5F1F440F551FDA01A252BE4F77
:10455000B801681B790B6D937C93DA01A657BD4FA8
:1045600044E050E04D935C932115310509F4A8C057
:10457000C1CFA901440F551F420F531FBF01615006
:104580007109460F571F440F551FDA01A252BE4F43
:10459000B801681B790B6D937C93DA01A657BD4F68
:1045A00044E050E04D935C93E230F10509F448C0DB
:1045B000A901440F551F420F531FBF016F5F7F4F6B
:1045C000460F571F440F551FDA01A252BE4FB801C4
:1045D000681B790B6D937C93DA01A657BD4F44E0BD
:1045E000C42ED12CCD92DC922530310509F450C077
:1045F000309709F473C0A9014F5F5F4FBA01660F8E
:10460000771F460F571FBF0161507109460F571F93
:10461000440F551FDA01A252BE4FB801681B790B37
:104620006D937C93DA01A657BD4F44E0C42ED12C84
:10463000CD92DC922115310511F40C942B3403C07A
:1046400025303105C1F6A90141505109BA01660F63
:10465000771F460F571FBF0161507109460F571F43
:10466000440F551FDA01A252BE4FB801681B790BE7
:104670006D937C93DA01A657BD4F44E050E04D9313
:104680005C9325303105C1F0E230F10539F565C0A4
:10469000309709F444C0AF01455F5F4F440F551F89
:1046A000DA01A252BE4F6D937C93DA01A657BD4F3B
:1046B00064E070E06D937C93E230F10581F54DC0CC
:1046C000309709F056CF7093E1016093E00144E028
:1046D000C42ED12CD0928D02C0928C02A9014F5FC2
:1046E0005F4FBA01660F771F460F571FBF016F5FFD
:1046F0007F4F460F571F440F551FDA01A252BE4F7E
:10470000B801681B790B6D937C93DA01A657BD4FF6
:1047100064E070E06D937C9321153105F1F0A901FF
:1047200041505109BA01660F771F460F571FBF014D
:104730006F5F7F4F460F571F440F551FDA01A2527C
:10474000BE4F6801C81AD90ACD92DC92DA01A65789
:10475000BD4F44E050E04D935C93D2010D931C9308
:1047600040E550E05A8749876AE171E08CE093E0C8
:104770009A83898380E090E0DB014D915D91BD01DA
:104780004217530781F5AC01405F5C4FDA014D9150
:104790005C914E175F0739F5A981BA814D915C9103
:1047A000119748535F4F4D935C93AC014C5F5C4F46
:1047B000B7E0CB2ED12CDA01CD92DC92AC01485D72
:1047C0005D4FDA01CD92DC92AC01485F5C4FAAE00C
:1047D000CA2ED12CDA01CD92DC92D2011D921C920C
:1047E000D3011D921C92029649815A814E5F5F4F00
:1047F0005A8349838430910509F0BECF66EC72E09C
:1048000080E090E0AAEBB2E0BA83A98340E050E0F8
:10481000D901AA0FBB1FA20FB31FAE0FBF1F6D019F
:10482000CC0CDD1CD601A657BD4FB88FAF8B24161C
:104830003506B9F1A981BA81CD90DC901C141D0414
:1048400084F5DB01CD90DC90CD2859F1DC01A65434
:10485000BE4FCD90DC90CD2821F5DC01AE52BE4F8D
:10486000CD90DC90C216D306E1F4DC01AA53BE4F12
:10487000CD90DC90CE16DF06A1F4A5E0CA2ED12C97
:10488000AF89B88DCD92DC92D2011D921C92D301DA
:104890001D921C92A981BA811D921C92DB011D926E
:1048A0001C924F5F5F4FA981BA811296BA83A98388
:1048B00002966E5F7F4F4630510509F0B8CF3A82BD
:1048C00029820AC0F30111821082D5011D921C9227
:1048D000EB81FC8111821082FFEF2F1A3F0A22E048
:1048E000420E511C32E0A30EB11C4B815C814E5F25
:1048F0005F4F5C834B8352E0650E711CED81FE813E
:104900003296FE83ED832D853E852E5F3F4F3E8799
:104910002D874B855C854E5F5F4F5C874B8756E0EC
:104920002516310409F019CDF092D302E092D2029B
:1049300069857A857093190360931803B4ED6B2E23
:10494000B2E07B2EEAE9F1E0FE83ED8316E8212E4A
:1049500011E0312E02E711E01C830B8328EE32E0D8
:104960003E872D8704E0A02EB12CD3012D913C91E0
:104970002115310541F4ED81FE8111821082D101B2
:104980001D921C9276C4ED85FE854080518040EEDC
:1049900082014003B001419F700D1124AB01405FC3
:1049A0005F4F5A8B498B40EF4003C001419F900DF0
:1049B0001124089668EF6003A001619F500D112437
:1049C0004C5F5F4FE1E0E9872430310509F019863B
:1049D000D984CD2CD12CD88ECF8A01E00B872530FD
:1049E000310509F01B861B85E12FF0E0A1E0B0E066
:1049F0002130310511F0A0E0B0E0C988DA88CA9E04
:104A0000B001CB9E700DDA9E700D1124AD81BE8178
:104A10000D911C91600F711FA1E0B0E022303105B3
:104A200011F0A0E0B0E08A9F70018B9FF00C9A9F7C
:104A3000F00C11246B01CE0CDF1CDA8EC98EA8EEAF
:104A40006A2F820160037001619FF00C11247CE0E9
:104A5000E70EF11CCC24C394D12C2330310511F086
:104A6000C12CD12CEC9CD001ED9CB00DFC9CB00D68
:104A70001124C98CDA8CAC0DBD1D0F89188D409F97
:104A80007001419FF00C509FF00C1124AE0DBF1D22
:104A90004E9FB0014F9F700D5E9F700D1124A60FA9
:104AA000B71F61E070E02630310511F060E070E082
:104AB000869F6001879FD00C969FD00C1124AC0D6F
:104AC000BD1D61E070E02730310511F060E070E05D
:104AD000469F6001479FD00C569FD00C1124AC0D0F
:104AE000BD1D61E070E02830310511F060E070E03C
:104AF000869F6001879FD00C969FD00C1124AC0D2F
:104B0000BD1D61E070E02930310511F060E070E01A
:104B1000469F7001479FF00C569FF00C1124EA0E3F
:104B2000FB1EA1E0B0E02A30310511F0A0E0B0E0BA
:104B300069897A896A9FA0016B9F500D7A9F500DF9
:104B40001124E40EF51E2B30310541F461E0AB81F8
:104B5000BC814D915C91463051050CF060E0462FD0
:104B600050E0849FB001859F700D949F700D1124BB
:104B7000E60EF71ED20174E0AA0FBB1F7A95E1F78B
:104B80008D01085011092B30310541F441E0AB8112
:104B9000BC816D917C91673071050CF440E050E070
:104BA000049FB001059F700D149F700D11246E0DB0
:104BB0007F1DA1E0B0E02C30310511F0A0E0B0E0A5
:104BC0008A9FA0018B9F500D9A9F500D11247B014D
:104BD000E40EF51EAD81BE81ED92FC92C7014197B6
:104BE0008F359105F0F4019604E0959587950A9527
:104BF000E1F766E070E00E94AB37DC01AA0FBB1F53
:104C00008A0F9B1FD1014D915C91DC01A40FB51F50
:104C1000AA0FBB1FA252BE4FCC24C394D12CCD925D
:104C2000DC92AB81BC818D919C910F89188D080F0E
:104C3000191FE00FF11F81E090E02B30310511F0DA
:104C400080E090E0E80FF91FAB81BC81ED93FC930D
:104C5000C7014097C984CC2009F45BC03B9709F099
:104C600096C097FD0F9614E0959587951A95E1F7F4
:104C700066E070E00E94AB37D1012D913C91FC01C0
:104C8000EE0FFF1FBF01680F791FAB01420F531FCB
:104C9000440F551FDA01A252BE4F18E7C12ED12C86
:104CA000CD92DC92DA01A657BD4FAD92BC92211590
:104CB0003105A9F42F5F3F4F8E0F9F1F280F391F1B
:104CC000220F331FF901E252FE4F08E710E0118373
:104CD0000083F901E657FD4FB182A08216C0A901F9
:104CE00041505109640F751F660F771FDB01A252F7
:104CF000BE4F48E750E04D935C93DB01A657BD4F94
:104D0000AD92BC9222303105A9F6D3011D921C92BE
:104D10003EC0CB84CC20D9F13B97C9F509811A81DB
:104D20000F5F1F4F1A8309839801220F331FF90168
:104D3000E654FD4F4CE251E051834083F901EA53C0
:104D4000FD4F41E050E051834083F901EE52FE4FA8
:104D500097FF02C0C701019744E0959587954A9552
:104D6000E1F766E070E00E94AB3791838083F90140
:104D7000EA53FE4FD1018D919C9191838083F9017B
:104D8000E654FE4F11821082F30111821082F70166
:104D90007097F7FD3F9614E0F595E7951A95E1F7C2
:104DA00021E030E024193509C901880F991FDC0181
:104DB000A65EBE4F4D915C91E417F50709F04FC117
:104DC000D101ED90FC90DC01A05FBC4F4D915C9156
:104DD000E416F50609F043C18C01085F1C4FD801A9
:104DE0004D915C91443051050CF039C1D3014D9186
:104DF0005C91BA01645071096230710508F42FC1E9
:104E00004830510509F42BC1B3E0CB2ED12CD80189
:104E1000CD92DC92DC01A45FBC4F0D911C9141301E
:104E2000510519F060E070E002C06EE170E0600FC3
:104E3000711F4230510519F000E010E002C000E59A
:104E400010E0600F711F4330510519F080E090E0D1
:104E500002C088E290E0DB01A80FB91F463051057F
:104E600019F060E070E002C060E570E06A0F7B1F3F
:104E70004730510519F000E010E002C002E310E0F5
:104E8000DB01A00FB11F4930510519F080E090E01F
:104E900002C08CE390E0BD01680F791F4A305105D4
:104EA00019F0A0E0B0E002C0A4E1B0E0A60FB71F87
:104EB0004B30510519F060E070E002C066E470E02C
:104EC0006A0F7B1F4C30510519F080E090E002C062
:104ED00088E790E0220F331FD901A45FBC4F860FF3
:104EE000971F8D939C934230510509F046C0D9011C
:104EF000AC5FBC4F07E010E00D931C93D901A85D97
:104F0000BD4F0D931C93D901A85FBC4F2DE030E03D
:104F10002D933C93C701019663E070E00E94AB378C
:104F20008F01000F111F0E0F1F1F9801280F391F2F
:104F3000220F331FD901A252BE4F40E550E04D93DE
:104F40005C93C701029663E070E00E94AB37080FE4
:104F5000191F000F111FD801A252BE4F60E570E06B
:104F60006D937C93D901A657BD4FAD92BC92D801E9
:104F7000A657BD4FAD92BC926FC04330510571F43E
:104F8000D901AC5FBC4F87E090E08D939C93D90131
:104F9000A85DBD4F82E1C82ED12C2BC046305105F3
:104FA000A9F4D901AC5FBC4F07E0E02EF12CED92E3
:104FB000FC92D901A85DBD4FED92FC92D901A85F8A
:104FC000BC4F0DE010E00D931C9346C049305105D5
:104FD00081F14A30510581F4D901AC5FBC4F87E0C3
:104FE00090E08D939C93D901A85DBD4F1EE1C12E29
:104FF000D12CCD92DC9230C04B305105B9F4D9019F
:10500000AC5FBC4F77E0E72EF12CED92FC92D9011A
:10501000A85DBD4F08E010E00D931C93D901A85F77
:10502000BC4F25E030E02D933C9319C04C30510526
:1050300099F4D901AC5FBC4F47E050E04D935C93CD
:10504000D901A85DBD4F4D935C93D901A85FBC4FBA
:105050006DE070E06D937C93D3011D921C92CF01A3
:1050600066E070E00E94AB377C01E1E0F0E0FC8795
:10507000EB87039714F01C861B860AEB12E0E0E036
:10508000F0E022ED31E03A872987A2014F5F5F4FC0
:105090005A8B498B6701CC0CDD1CCE0CDF1CA9851B
:1050A000BA858D919D91BA87A987E816F90609F00E
:1050B000D9C0D1010D90BC91A02DB88FAF8BDF016D
:1050C000AA53BE4F8D919C912F89388D281739078F
:1050D00009F0C8C0D8012D913C91121613060CF0AE
:1050E000C1C0D3014D915C91CA010497039708F4A4
:1050F000B9C04130510569F46B857C85641575052F
:1051000041F0DF01AA53BD4F8D919C91029709F4A4
:10511000A9C0DF01A255BE4F83E090E08D939C9320
:105120004130510519F080E090E002C08EE190E03E
:10513000D901A81BB90BCD014230510519F020E06F
:1051400030E002C020E530E0821B930B4330510574
:1051500019F020E030E002C028E230E0821B930B1F
:105160004730510519F020E030E002C028EE33E06E
:10517000821B930B4930510519F020E030E002C04A
:105180002CE330E0821B930B4A30510519F020E0EC
:1051900030E002C024E130E0821B930B4B3051051C
:1051A00019F020E030E002C026E430E0821B930BCF
:1051B0004C30510519F020E030E002C028E730E023
:1051C000821B930BD8018D939C934230510581F53E
:1051D0008F89988D019663E070E00E94AB3796014D
:1051E000280F391F220F331FD901A252BE4F40E5AD
:1051F00050E04D935C938F89988D029663E070E048
:105200000E94AB378C0D9D1D880F991FDC01A252A7
:10521000BE4F60E570E06D937C93D901A657BD4FFA
:10522000AD92BC92DC01A657BD4FAD92BC9217C0A7
:105230004330510519F04830510571F4DF01A6548F
:10524000BE4F8D919C91892B39F4DF01A255BD4F42
:1052500029893A892D933C934730510519F0D301A0
:105260001D921C9232960E5F1F4FEC30F10509F033
:1052700016CFED81FE8181919191FE83ED83409760
:105280008136910518F0D3011D921C92B2E06B0E8D
:10529000711CE2E02E0E311C0B811C810E5F1F4F32
:1052A0001C830B832D853E852E5F3F4F3E872D87C8
:1052B00038EE631632E0730609F057CB49815A8104
:1052C000509389024093880210E1412E13E0512E41
:1052D000F20160E070E008E2E02E02E0F02E8CE2E5
:1052E000A82EBB24B39494E0692E712CD7018D9124
:1052F0009D917D01029709F079C0CB018C5F9C4F95
:10530000DC018D919C91449709F070C0CB01865EC1
:105310009E4FDC014D915C9145305105D1F49A01CD
:1053200021503109808191818901000F111F200FC7
:10533000311F820F931F880F991F9C0122523E4FED
:10534000D901AD92BC9286579D4FDC016D927C9243
:105350001CC09A012F5F3F4F808191818901000F0E
:10536000111F200F311F820F931F880F991F9C015F
:1053700022523E4FD901AD92BC9286579D4FDC011F
:105380006D927C924115510551F6808191818A017F
:10539000000F111F009799F40196400F511F840FC1
:1053A000951F880F991F9C0122523E4FD901AD9243
:1053B000BC9286579D4FDC016D927C9217C06801AC
:1053C000C40ED51E9C01215031092C0D3D1D220F0C
:1053D000331FD901A252BE4FAD92BC9226573D4F0A
:1053E000D9016D927C9282309105B1F66E5F7F4F4C
:1053F00032966430710509F079CF6EED71E040E0CE
:1054000050E080E090E0FC01EE0FFF1FE60FF71F79
:1054100060807180BAE06B1671042CF401968330C1
:10542000910589F773C01AE1E12E11E0F12E0CE02D
:10543000A02E03E0B02EE8E0F3E020E030E0D7015A
:105440000D911D917D010417150751F58901005F2C
:105450001C4FD8010D911C910817190709F50081FF
:10546000118104301105E4F4D5010D911C911197BF
:10547000060D171D0D931C9389010C5F1C4FA7E0AF
:10548000CA2ED12CD801CD92DC928901085D1D4F26
:10549000D801CD92DC92BEE0CB2ED12CD182C0823D
:1054A0002E5F3F4F02E0A00EB11C32962430310532
:1054B00031F6EAEBF2E020E030E002ED11E0D80155
:1054C000ED90FD908D01E416F506C9F4D901AA53BB
:1054D000BE4F0D90BC91A02DA817B90781F4A081F3
:1054E000B181A619B709B183A083D901A255BE4FD6
:1054F0000F2EF3E0CF2ED12CF02DCD92DC922E5F2B
:105500003F4F32962C303105D1F688CF4F5F5F4F39
:105510006A5F7F4F4630510509F073CF0EE611E008
:105520001A87098708E013E01C830B83BAE1EB2E8E
:10553000B1E0FB2EA12CB12C18E1212E312CC12C75
:10554000D12C66246394712C0AE010E0A985BA85F9
:105550001D921C92EB81FC818081918121E030E0E1
:10556000009711F420E030E0821B930BAB81BC81EB
:105570008D939D93BC83AB83AF81B885ED91FC91F6
:1055800011971E161F060CF08FC43197ED93FC93F4
:10559000AF85B8892D913C91C9010197049708F016
:1055A00041C043E050E0A985BA854D935C933097A4
:1055B00009F07AC441E050E02330310511F040E0B9
:1055C00050E0D7018D919C91840F951F24303105B7
:1055D00019F040E050E002C045E050E0840F951F14
:1055E00066E070E00E94AB37D7018D939C9341E059
:1055F00050E02230310511F040E050E0D2018D91B1
:105600009C91840F951F2130310511F4E2E0F0E008
:105610008E0F9F1F63E070E00E94AB37F201918311
:10562000808342C42530310509F047C0A985BA8579
:105630006D927C92329709F037C48091D20290919A
:10564000D302FC01EE0FFF1FDF01AC52BD4F6D9284
:105650007C92AF0146565E4FD7012D913C91A4E05C
:10566000220F331FAA95E1F7285E3F4FDA012D93F1
:105670003C93AF014A575E4FD2012D913C91DA0124
:105680002D933C93E851FD4FD182C0820196B80121
:105690000E94AB379093D3028093D202C114D104FD
:1056A00049F480915C0290915D024A9690935D026C
:1056B00080935C0284E090E071C226303105F1F401
:1056C000E985FA8571826082AF81B8851D921C924E
:1056D00020918802309189022F5F3F4FF901EE0F30
:1056E000FF1FDF01A654BD4F8CE291E08D939C9388
:1056F000DF01AA53BD4F6D927C9275C327303105EF
:1057000039F4E6E0F0E0A985BA85ED93FC93CCC3CB
:105710002830310509F041C0E3E0F0E0A985BA8501
:10572000ED93FC930E94503529E030E040E050E0DA
:105730000E9474359B017093030260930202AF8153
:10574000B8858D919C91892B09F0AEC3C90163E0A6
:1057500070E00E94AB37880D991D9C01220F331F0A
:10576000280F391F260F371F220F331FF901EC5F57
:10577000FD4F40815181452B09F096C3F901E2525A
:10578000FE4F20813181232B09F08EC3F7019183D5
:105790008083D2016D937C9387C329303105D9F57D
:1057A000A985BA856D927C92E230F10509F07CC33F
:1057B0008091D2029091D3029C01220F331FD90114
:1057C000AC52BD4FED93FC93F901E656FE4FD70165
:1057D0004D915C91B4E0440F551FBA95E1F7485ED6
:1057E0005F4F51834083F901EA57FE4FD2014D913B
:1057F0005C9151834083F901E851FD4FD182C08211
:105800000196B8010E94AB379093D3028093D202E5
:10581000E3E0F0E045C32A303105E9F5A985BA8512
:105820006D927C92EF81F8851182108260918802DE
:10583000709189026F5F7F4FCB01880F991FFC0128
:10584000E654FD4F46E950E051834083FC01EA53A2
:10585000FD4F42E050E051834083FC01EE52FE4F89
:10586000D7014D915C914F5F5F4F4A0D5B1D518396
:105870004083FC01EA53FE4FD2014D915C9151836C
:105880004083FC01E654FE4F3183208370938902EC
:1058900060938802C5C22B30310591F5A985BA8580
:1058A0006D927C92329709F0FFC28091D202909162
:1058B000D3029C01220F331FF901EC52FD4F43E04C
:1058C00050E051834083F901E656FE4FD7014D91D8
:1058D0005C9164E0440F551F6A95E1F7485E5F4FA5
:1058E00051834083F901EA57FE4FD2014D915C91FB
:1058F00051834083F901E851FD4FD182C08252C0EB
:105900002C303105A1F4A985BA856D927C9232972D
:1059100009F0CAC28091D2029091D302FC01EE0F2D
:10592000FF1FDF01AC52BD4F24E030E017C02D3027
:10593000310509F042C0A985BA856D927C923297F3
:1059400009F0B2C28091D2029091D302FC01EE0F15
:10595000FF1FDF01AC52BD4F25E030E02D933C939B
:10596000AF0146565E4FD7012D913C91B4E0220F16
:10597000331FBA95E1F7285E3F4FDA012D933C9330
:10598000AF014A575E4FD2012D913C91DA012D9320
:105990003C93DF01A851BD4FCD92DC92EE58FE4FF3
:1059A000118210820196B8010E94AB379093D30206
:1059B0008093D202ECE0F0E073C22E303105E1F5C5
:1059C000A985BA856D927C92329709F06DC280915B
:1059D000D2029091D3029C01220F331FF901EC52A5
:1059E000FD4F46E050E051834083F901E656FE4FFB
:1059F000D7014D915C91A4E0440F551FAA95E1F7A2
:105A0000485E5F4F51834083F901EA57FE4FD20150
:105A10004D915C9151834083F901E851FD4FD18252
:105A2000C0820196B8010E94AB379093D302809355
:105A3000D202E7E0F0E034C22F303105D1F5A9857C
:105A4000BA856D927C92329709F02EC28091D20273
:105A50009091D3029C01220F331FF901EC52FD4FAC
:105A600047E050E051834083F901E656FE4FD701ED
:105A70004D915C9164E0440F551F6A95E1F7485ED3
:105A80005F4F51834083F901EA57FE4FD2014D9198
:105A90005C9151834083F901E851FD4FD182C0826E
:105AA0000196B8010E94AB379093D3028093D20243
:105AB000B7C12031310509F076C02EE030E0A9856C
:105AC000BA852D933C93E230F10509F0EDC1809148
:105AD000D2029091D302BC01660F771F9B012C521A
