:100000000C943C060C9464060C9464060C946406F0
:100010000C9464060C9464060C9464060C946406B8
:100020000C9464060C9464060C9494150C940616B7
:100030000C9464060C9464060C9464060C94640698
:100040000C9464060C9464060C9464060C94640688
:100050000C9464060C9464060C9464060C941407C7
:100060000C9464060C9464060C9464060C94640668
:100070000C9464060C9464060C9464060C94640658
:100080000C940C080C9464060C9464060C9464069E
:100090000C9464060C9464060C9464060C94640638
:1000A0000C9464060C9464060C946406F0F89C8E20
:1000B0008783878E9CF8F00000FEFF030303030391
:1000C000070EFCF80000FEFF0303030303070EFC0A
:1000D000F80000FFFF00000000000000FFFF00002C
:1000E000FEFF8383838383C7EE7C380000F8FC0E19
:1000F00007030303070EFCF800003F7FE0C0808089
:10010000C0E07F3FFFFF01010101010101FFFF008E
:1001100000FFFF0C0C0C0C1C3E77E3C100007FFFBE
:10012000C0C0C0C0C0E0703F1F00001F3F70E0C0F3
:10013000C0C0E0703F1F00007FFFC1C1C1C1C1E36B
:10014000773E1C00001F3F70E0C0C0C0E0703F1F42
:10015000000000000001FFFF01000000D5F08D1439
:10016000A1C881CFD9F1AF200070757368412642D4
:100170000054494D453A00506C6179322077696EE0
:1001800000506C6179312077696E00526561647945
:100190003F00466967687421210050323A48500098
:1001A00050313A4850002D008FC72C6C96CBE57229
:1001B000B95C2E97CBE54A65010FC72C6C96CBE551
:1001C00072B95C2E97CBE54A65013C4F4B3E002D42
:1001D00000315020565320435055003E0053453ABD
:1001E0004F46460053453A4F4E0043505531205636
:1001F000532043505532004361726420466F6C6453
:100200006572005350004C56004576696C20566963
:10021000727573004350553100427265616B204D19
:10022000616E0054616E6B204D616E0043756265B6
:10023000204D616E00427573746572204D616E00D1
:100240000F874FD80638806428508A20C04C780C1D
:100250000F874FD826873D06ABA799F0180F876602
:100260000105165060010516080003C43051B8801E
:1002700070020FC749B3D2AC342BE93A8DC3615D2C
:10028000020B0FC79F5C80C5D201A01CF20E0FC7E6
:100290009F3CF5360E87BC030FC75FCA42442E5EF3
:1002A000887800E1021D0FC75FCAAA5D977538AC58
:1002B000CB1A97D75CBD7AB2C0400622A2082802AA
:1002C00001A2004E02C84023040000C0E15B2E20C2
:1002D000EE109A2042041541A3A0D014401860816A
:1002E000904CBEEB2100C920990891A0008E329855
:1002F00040084ACB819024E43597D75CBD7AB21987
:100300001DB5CAA35CE665DC124270F8960B88FB4B
:10031000C770613292C9773D0C8EB972E7384EB919
:10032000F69499F91A0FCFD7E00441A04A0050582B
:10033000A000042D200853F2CA8B803000010D006C
:100340000354180044018101025EDC0FCFD7354F02
:100350003D7AF5D8D35CAFBC1CC62D57AFB98DC361
:10036000C50D07C77101412602B081704107C771F1
:10037000259D253BE18207C7720000600108B0009F
:10038000003820078783645ED665260C07C780A0E7
:100390008A484010040021C83007C780E0E21D2BC6
:1003A0001D068FCF1C911B71134C70D6122090F834
:1003B0001145C19442845E0817080EB4C030C8C10C
:1003C000038FCF1C7B5BFB92870C123F32943BA7C1
:1003D000CBB8EC711B87830707C76462740100B058
:1003E00081704107C7645ED6203BE18287C748A27F
:1003F00084C6A8537A1287C748A2EC9CE63C0987BA
:10040000C72BD682500BB2A05B87C72B9FE1280772
:10041000C772028EE80195830007C772028EE861F9
:100420001F040FCF970C82042B0207CA520AA84E52
:10043000A42C3A3E63902022802220200A202241D0
:1004400062BCB2010FCF978CE1707AECADA77958FE
:1004500097CF9806EBD5AB9534C62B1B07C7718099
:1004600041004010044020E03007C771348B3B2B23
:100470001D0687C7631175A96111000E0887C76340
:100480005DD6650D72400FCF1727028D80525188BF
:1004900093830027E406BC11644554A062AC823704
:1004A000002620A5A8E0850D0FCF1767799ECB61A8
:1004B0009D7ACB1BE93A72EEBE05E6A91B2F6C0FA5
:1004C000CF77C34092916207B80D108729C464703A
:1004D000370E110F4AAA02612280233333383D01BF
:1004E0008FCF1CC821479E7BCDD130A20C0CA539E3
:1004F000E5794F39731B854407C7B79803E5310782
:10050000C7645ED6203BE1820FCFC79CC6611EAE9A
:10051000877918A73CCA719CE6613A0FF3348ED9EB
:100520000FCF77CE7BAF17FBD6C3FCC0BC75EFFBFC
:1005300038EDCD330FCF87391468454445C40611D3
:100540005988D800C3F44D27073217B2A6888A8885
:10055000A8884B8A73030FCF87AB57AF5EBD7A1C59
:1005600087379DA75CBD7AF5EAD5B9010FCFEFC1FA
:100570000D8009A212834AA02A1BC19782D642028B
:10058000B9102E00E0401460F0160FCFEFC17DC906
:10059000734EBBF8524627A7CBB8ECB1C9E02D0F7C
:1005A000CFEFBB5909CE5A020402838DE04B416B59
:1005B000211917C201D5810AC020BC030F8FDFD8D3
:1005C000EBC8230619FBE00BF78D39D669CE5343F0
:1005D000C253536869656C64004272656174680057
:1005E0004669726500507269736D004578706C6F72
:1005F0007300426F6F6D657200506172616C7900BB
:100600005477696E004775737400427265616B00C0
:1006100057617665005468726F7700426F6D6200B3
:100620004169720047756E6D616E0054616E6B00BA
:1006300043756265004275737465720007C7639401
:10064000AAB4026AE91807C7364111902220AA62AB
:10065000520187C7590723017198C30A87C7593ABE
:100660001052A40119BA0207C7364B00250AA04B45
:100670004C2A07C763110506800003D0B00687C760
:1006800059179580018C871507C7361831628C1869
:1006900031920A07C7A38C000E58A2402E0387C7C9
:1006A0005926280240003583AC0007C736028891DE
:1006B00022D188D05407C7A3F4A016A4C5CB0087C5
:1006C000C759078150ABF1B00207C736AAAA4B1031
:1006D000A4A8A60287C7591B5450072A54570007DD
:1006E000C7E3222E01010B62190307C7364B8A208C
:1006F000088214572A07C7E3A22EF5A25E0687C711
:10070000DF07010204081020408000000000003EC6
:100710005B4F5B3E3E6B4F6B3E1C3E7C3E1C183C71
:100720007E3C181C577D571C1C5E7F5E1C00183CCD
:100730001800FFE7C3E7FF0018241800FFE7DBE716
:10074000FF30483A060E2629792926407F050507FD
:10075000407F05253F5A3CE73C5A7F3E1C1C080859
:100760001C1C3E7F14227F22145F5F005F5F06091E
:100770007F017F006689956A606060606094A2FF77
:10078000A29408047E040810207E201008082A1C69
:1007900008081C2A08081E101010100C1E0C1E0C35
:1007A00030383E3830060E3E0E06000000000000D5
:1007B000005F00000007000700147F147F14242A44
:1007C0007F2A122313086462364956205000080716
:1007D0000300001C2241000041221C002A1C7F1C37
:1007E0002A08083E08080080703000080808080839
:1007F000000060600020100804023E5149453E00A0
:10080000427F400072494949462141494D331814FD
:10081000127F1027454545393C4A4949314121114C
:1008200009073649494936464949291E000014003E
:100830000000403400000008142241141414141461
:10084000004122140802015909063E415D594E7CBF
:100850001211127C7F494949363E414141227F4174
:1008600041413E7F494949417F090909013E4141D2
:1008700051737F0808087F00417F41002040413FBD
:10088000017F081422417F404040407F021C027FCC
:100890007F0408107F3E4141413E7F090909063E21
:1008A0004151215E7F0919294626494949320301F0
:1008B0007F01033F4040403F1F2040201F3F403802
:1008C000403F631408146303047804036159494DDD
:1008D00043007F4141410204081020004141417F13
:1008E0000402010204404040404000030708002089
:1008F000545478407F284444383844444428384489
:1009000044287F385454541800087E090218A4A4BF
:100910009C787F0804047800447D40002040403DDE
:10092000007F1028440000417F40007C0478047858
:100930007C080404783844444438FC1824241818EB
:10094000242418FC7C080404084854545424040447
:100950003F44243C4040207C1C2040201C3C403034
:10096000403C44281028444C9090907C4464544C63
:1009700044000836410000007700000041360800BE
:1009800002010204023C2623263C1EA1A161123A68
:100990004040207A385454555921555579412154B5
:1009A000547841215554784020545579400C1E52BA
:1009B000721239555555593954545459395554545E
:1009C000580000457C410002457D420001457C40C5
:1009D000F0292429F0F0282528F07C5455450020E2
:1009E00054547C547C0A097F49324949493232487F
:1009F000484832324A4848303A4141217A3A4240E6
:100A00002078009DA0A07D39444444393D404040B9
:100A10003D3C24FF2424487E4943662B2FFC2F2B8A
:100A2000FF0929F620C0887E09032054547941002B
:100A300000447D413048484A32384040227A007AAA
:100A40000A0A727D0D19317D2629292F2826292988
:100A5000292630484D4020380808080808080808AA
:100A6000382F10C8ACBA2F102834FA00007B0000D1
:100A700008142A142222142A14089500220095AA88
:100A8000005500AAAA55AA55AA000000FF001010A0
:100A900010FF00141414FF001010FF00FF1010F0DE
:100AA00010F0141414FC001414F700FF0000FF00F1
:100AB000FF1414F404FC141417101F10101F101F3F
:100AC0001414141F00101010F0000000001F10106C
:100AD00010101F10101010F010000000FF10101068
:100AE000101010101010FF10000000FF140000FF85
:100AF00000FF00001F10170000FC04F4141417106E
:100B0000171414F404F40000FF00F7141414141460
:100B10001414F700F7141414171410101F101F14D6
:100B20001414F4141010F010F000001F101F000037
:100B3000001F14000000FC140000F010F01010FF63
:100B400010FF141414FF141010101F00000000F008
:100B500010FFFFFFFFFFF0F0F0F0F0FFFFFF0000DD
:100B6000000000FFFF0F0F0F0F0F38444438447C84
:100B70002A2A3E147E02020606027E027E02635587
:100B80004941633844443C04407E201E2006027ED6
:100B9000020299A5E7A5991C2A492A1C4C720172E8
:100BA0004C304A4D4D303048784830BC625A463D52
:100BB0003E494949007E0101017E2A2A2A2A2A4407
:100BC000445F444440514A444040444A514000003C
:100BD000FF0103E080FF000008086B6B0836123647
:100BE0002436060F090F0600001818000000101028
:100BF000003040FF0101001F01011E00191D1712E6
:100C0000003C3C3C3C0000000000080B00020202DB
:100C10000100090400000102020000052400100187
:100C2000052401010104240206052406000107052C
:100C3000810310004009040100020A0000000705BA
:100C4000020240000007058302400000040309047B
:100C500012010002EF02014041233680000101022F
:100C6000030141726475696E6F204C4C4300417200
:100C70006475626F7900743411241FBECFEFDAE01F
:100C8000DEBFCDBF11E0A0E0B1E0E8E7FFE602C0C3
:100C900005900D92A635B107D9F726E0A6E5B1E09B
:100CA00001C01D92AF3FB207E1F716E0CCE3D6E0FA
:100CB00004C02197FE010E94AF37CB33D107C9F79B
:100CC0000E9436180C94BA370C940000CF92DF9231
:100CD000EF92FF920F931F93CF93DF936C017A01F2
:100CE0008B01C0E0D0E0CE15DF0589F0D8016D9111
:100CF0008D01D601ED91FC910190F081E02DC601AE
:100D00000995892B11F47E0102C02196ECCFC70111
:100D1000DF91CF911F910F91FF90EF90DF90CF90D7
:100D2000089580915F01E0915D01F0915E0188235B
:100D300049F0CF01029690935E0180935D01859109
:100D400094910895CF01029690935E0180935D0186
:100D500080819181089580915601089508950895A4
:100D600080E090E008950E94B5373FB7F8948091F5
:100D70006D0290916E02A0916F02B091700226B543
:100D8000A89B05C02F3F19F00196A11DB11D3FBFC3
:100D9000BA2FA92F982F8827820F911DA11DB11D51
:100DA000BC01CD0142E0660F771F881F991F4A954D
:100DB000D1F708958F929F92AF92BF92CF92DF9218
:100DC000EF92FF926B017C010E94B5064B015C0122
:100DD000C114D104E104F104F1F00E94B506DC0174
:100DE000CB0188199909AA09BB09883E9340A1053E
:100DF000B10570F321E0C21AD108E108F10888EECC
:100E0000880E83E0981EA11CB11CC114D104E1041A
:100E1000F10419F7DDCFFF90EF90DF90CF90BF90F6
:100E2000AF909F908F9008951F920F920FB60F92E0
:100E300011242F933F938F939F93AF93BF938091F0
:100E4000570190915801A0915901B0915A013091E8
:100E50006C0223E0230F2D3720F40196A11DB11D54
:100E600005C026E8230F0296A11DB11D20936C0238
:100E70008093570190935801A0935901B0935A0160
:100E800080916D0290916E02A0916F02B0917002FC
:100E90000196A11DB11D80936D0290936E02A093E7
:100EA0006F02B0937002BF91AF919F918F913F916C
:100EB0002F910F900FBE0F901F901895CF92DF9239
:100EC000EF92FF920F931F93CF93DF930E949106AF
:100ED000811520E8920761F4809171008D7F8093E5
:100EE00071001092910046984798109265028BC04D
:100EF00021E020936502813020E8920751F480912F
:100F00005B0190915C0190935E0180935D010E9472
:100F1000910697FD05C020916402222309F43FC089
:100F20002091630221113BC021E020936602EC0175
:100F3000DF77209769F481E08093670246983FE964
:100F4000C32E3FE0D32EE12CF12CCAEFD0E014C029
:100F50008E0120E030E060E472E48FE090E0A901CF
:100F600098010E94643569017A0181E0C81AD108AC
:100F7000E108F10810926702E0918406F09185067D
:100F80000995811103C081E0809367028091660218
:100F90008823B9F180916702811133C003C0109298
:100FA0006602C5CF46992DC0479A0E9491060097C8
:100FB00071F09C01DE010E94B835DC01CB0129E013
:100FC000B595A795979587952A95D1F703C08FEF8B
:100FD0009FEFDC01109290002AE020939100D092C4
:100FE0009900C09298008093680290936902A09340
:100FF0006A02B0936B0280917100826080937100ED
:1010000002C04798D2CFDF91CF911F910F91FF90EF
:10101000EF90DF90CF9008951F920F920FB60F922E
:1010200011242F933F934F935F936F937F938F93ED
:101030009F93AF93BF93EF93FF938091680290913A
:101040006902A0916A02B0916B02892B8A2B8B2BCB
:1010500081F18091670281110BC098B180E48927EA
:1010600088B980916602882319F088B1805888B9C0
:101070008091680290916902A0916A02B0916B021E
:10108000181619061A061B06B4F48091680290918E
:101090006902A0916A02B0916B020197A109B1099E
:1010A0008093680290936902A0936A02B0936B02E6
:1010B00002C00E945E07FF91EF91BF91AF919F9197
:1010C0008F917F916F915F914F913F912F910F90F1
:1010D0000FBE0F901F9018952D9A0895BC0180E0C7
:1010E00090E00C94DA068FB18095807F669B8860D3
:1010F0001C9B8460089560387105D0F4403451051C
:10110000B8F4E2E0F7E080E1849FD001A0781124F8
:10111000A60F4770E40FF11D8491AA58BD4F2223FA
:1011200019F06C91862B03C080956C9186238C936B
:1011300008952F923F924F925F926F927F928F927B
:101140009F92AF92BF92CF92DF92EF92FF920F9356
:101150001F93CF93DF93CDB7DEB729970FB6F894DF
:10116000DEBF0FBECDBFFC016A3069F425898189DD
:10117000928938E0239F800D911D1124928B818BE1
:10118000108A1786AAC06D3009F4A7C0998788878E
:10119000F58834882388618872880785108900382B
:1011A0001105C4F0A885B98555962C915597422F05
:1011B00050E01F968D919C915097B6E02B9F800D2B
:1011C000911D1124E885F985908B87872689211147
:1011D0006EC083C0F0E46F16710424F7C80125E0E7
:1011E000F29E800D911D112418161906DCF68F2D24
:1011F00090E09C838B83C301A8E0FA9E800D911D33
:1012000011241816190674F6B5E06B9FB00111246D
:10121000FB01E65FF84FFA83E98330E08885998522
:1012200004969E838D83E981FA81E490353009F438
:10123000E12C430188E0482EE0FC02C0532C01C0A1
:10124000522C51100BC0321009C0E6944A948B8185
:101250009C81880E991E4110EFCF1BC068018C2D18
:10126000801B8F1590F754018A2D88198F1568F40B
:10127000252DA501B6018D819E813F830E947B08AB
:101280009FEFA91AB90A3F81EFCFAFEFCA1ADA0A66
:10129000E6CF3F5FEB81FC810E0F1F1F89819A8192
:1012A00001969A838983363009F0BDCF7BCF6AEFF0
:1012B00064039001659F300D112420583F4F28177B
:1012C00039075CF4A885B985ED91FC9111970190DF
:1012D000F081E02D6AE0CD01099581E090E029964A
:1012E0000FB6F894DEBF0FBECDBFDF91CF911F9137
:1012F0000F91FF90EF90DF90CF90BF90AF909F90B5
:101300008F907F906F905F904F903F902F900895B7
:101310000C9456350C944E350F93413021F400E077
:101320004EEF56E06BC0453021F400E045EF56E04B
:1013300065C0463021F400E04AEE56E05FC0493017
:1013400021F400E04FED56E059C04A3021F400E0AE
:1013500044ED56E053C04B3021F400E049EC56E038
:101360004DC04C3021F400E04FEB56E047C04D300B
:1013700021F400E045EB56E041C04E3021F400E09E
:101380004AEA56E03BC04F3021F400E04EE956E017
:1013900035C0403121F400E043E956E02FC041312F
:1013A00021F400E048E856E029C0423121F400E091
:1013B0004EE756E023C0433121F400E042E756E017
:1013C0001DC0443121F400E047E656E017C0453126
:1013D00021F400E04CE556E011C0463121F400E074
:1013E00042E556E00BC0473121F400E046E456E008
:1013F00005C0483129F400E04CE356E00E94270D77
:101400000F910895982F853019F1863029F1893090
:1014100009F18A3009F185EF890F8330F8F082EF06
:10142000890F8230B8F080EF890F8230C8F0923196
:1014300079F0933199F0943169F0953169F09631F2
:1014400069F0973169F081E0983159F080E00895B2
:1014500084E0089588E0089581E0089586E0089585
:101460008CE00895982F853029F1863039F1893044
:1014700009F18A3009F18B3009F18C30E9F08D30B7
:10148000C9F08E30D9F08F30B9F0803199F08131C8
:10149000A9F0823189F0833169F0843179F08BEEE3
:1014A000890F823048F0973149F081E0983139F066
:1014B00080E0089581E0089583E0089582E0089532
:1014C0008530B9F08930C1F08B30C9F08C3049F1EA
:1014D0008E30D9F08F30B1F08131B9F08231C1F066
:1014E0008331C9F08431D1F08631D9F08731E1F40C
:1014F00009C08EE190E0089580E590E0089588E2CB
:1015000090E0089582E390E008958CE390E00895E0
:1015100084E190E0089586E490E008958CE291E003
:10152000089588E790E0089580E090E00895853080
:1015300019F485E396E054C0863019F480E396E010
:101540004FC0893019F48BE296E04AC08A3019F412
:1015500084E296E045C08B3019F480E296E040C00A
:101560008C3019F48BE196E03BC08D3019F485E1A5
:1015700096E036C08E3019F480E196E031C08F30AD
:1015800019F48AE096E02CC0803119F485E096E0E9
:1015900027C0813119F480E096E022C0823119F42D
:1015A00089EF95E01DC0833119F482EF95E018C0F2
:1015B000843119F48BEE95E013C0853119F485EE72
:1015C00095E00EC0863119F480EE95E009C08731B0
:1015D00019F489ED95E004C0883121F482ED95E09D
:1015E0000C94F70C08954F925F926F927F928F92B6
:1015F0009F92AF92BF92CF92DF92EF92FF920F93A2
:101600001F93CF93DF935C014B01C22FD02F411169
:1016100015C011E0011110E021E01C9F20191124D8
:101620000C2F4CEB55E0B401C5010E94270D11238E
:1016300009F497C12C2F4FE955E08FC14130A9F42F
:1016400011E0011110E021E01C9F201911240C2F42
:101650004AE855E0B401C5010E94270D112309F4A1
:1016600080C12C2F4CE655E078C1423069F421E06E
:101670002C1B0C2F46E555E00E94270DD11171C19E
:101680002C2F44E355E069C1433059F421E02C1B71
:101690000C2F40E255E00E94270D2C2F48E055E02A
:1016A0005CC1443059F421E02C1B0C2F4FEF54E067
:1016B0000E94270D2C2F48EF54E04FC1453031F5E3
:1016C000622F70E080E090E00E9465362DEC3CECEB
:1016D0004CE45EE30E94F6369B01AC0160E070E0F2
:1016E00080E89FE30E94C7356B017C010C2F21E04D
:1016F00040EE54E0B401C5010E94570F20E04FEBCB
:1017000054E0B401C5010E94570F2BC14630A9F423
:1017100011E0011110E021E01C9F201911240C2F71
:1017200048EA54E0B401C5010E94270D112309F4D1
:1017300018C12C2F46E854E010C1473059F421E07D
:101740002C1B0C2F4DE754E00E94270D2C2F42E755
:1017500054E003C1483059F421E02C1B0C2F49E61A
:1017600054E00E94270D2C2F4CE554E0F6C0493080
:1017700061F4022F21E044E454E00E94270DD111CE
:10178000F0C020E042E254E0E8C04A3059F421E0E1
:101790002C1B0C2F49E154E00E94270D2C2F4FE009
:1017A00054E0DBC04B3059F421E02C1B0C2F49E0F6
:1017B00054E00E94270D2C2F4FEF53E0CEC04C3049
:1017C00059F421E02C1B0C2F46EF53E00E94270D0B
:1017D0002C2F4CEE53E0C1C04D3059F421E02C1BAE
:1017E0000C2F43EE53E00E94270D2C2F48ED53E0C1
:1017F000B4C04E30A9F411E0011110E021E01C9FAB
:10180000201911240C2F41EC53E0B401C5010E94B2
:10181000270D112309F4A5C02C2F42EA53E09DC0E7
:101820004F3059F421E02C1B0C2F49E953E00E9462
:10183000270D2C2F4CE853E090C0403159F421E0A3
:101840002C1B0C2F43E853E00E94270D2C2F46E75A
:1018500053E083C0413159F421E02C1B0C2F4DE69D
:1018600053E00E94270D2C2F42E653E076C0423110
:1018700069F421E02C1B0C2F4BE453E00E94270D50
:10188000D1116FC02C2F45E253E067C0433169F49A
:1018900021E02C1B00E049EF52E00E94270DD111FE
:1018A00060C02C2F42EB52E058C04431A9F411E043
:1018B000011110E021E01C9F201911240C2F46EA91
:1018C00052E0B401C5010E94270D112309F449C05B
:1018D0002C2F48E952E041C04531A1F411E001113B
:1018E00010E021E01C9F201911240C2F4EE852E03B
:1018F000B401C5010E94270D112399F12C2F42E854
:1019000052E02BC04631A1F411E0011110E021E0BA
:101910001C9F201911240C2F42E752E0B401C5018D
:101920000E94270D1123E9F02C2F4DE552E015C040
:101930004731B9F411E0011110E021E01C9F20199A
:1019400011240C2F40E552E0B401C5010E94270D7F
:10195000112339F02C2F40E452E0B401C5010E945C
:10196000270DDF91CF911F910F91FF90EF90DF90A6
:10197000CF90BF90AF909F908F907F906F905F902F
:101980004F9008959C01240F311D1216130674F513
:10199000803891055CF5FC0197FF02C0E0E0F0E0C3
:1019A0002138310514F020E830E02E1BAB014770E0
:1019B000552781E001C0880F4A95EAF777FF02C0FA
:1019C000695F7F4F93E0759567959A95E1F77695F6
:1019D000762F662777956795E60FF71FEA58FD4F34
:1019E000215020F09081982B9193FACF08950F9376
:1019F0001F93CF93DF938C01C0E0D0E0F801EC0F90
:101A0000FD1F6491662371F0E0918606F0918706D0
:101A10000190F081E02D86E896E00995892B11F080
:101A20002196ECCFCE01DF91CF911F910F910895B8
:101A3000E6E7F2E0A0E0B8E000800EBC8111012CE6
:101A40001197A0FDFDCF0192B9F70DB408952F9223
:101A50003F924F925F926F927F928F929F92AF923E
:101A6000BF92CF92DF92EF92FF920F931F93CF938B
:101A7000DF93CDB7DEB764970FB6F894DEBF0FBE25
:101A8000CDBF2C014A01FA0144913196E491942F83
:101A90009F779F5F892F8695481A5108292E312CF0
:101AA000C201820D931D97FDE9C1F0E84F16510464
:101AB0000CF0E4C13E2F3F733F5F832F8695DB011F
:101AC000A81BB109CD01BD01630F711D77FDD6C102
:101AD000A034B1050CF0D2C1B42EBB1CBB24BB1C7E
:101AE00071E0E6FF70E0EE1FEE27EE1FE887AC0125
:101AF00097FF04C044275527481B590B6A01B7E0DC
:101B0000CB22DD24AC0197FF02C0495F5F4FDA01B1
:101B100043E0B595A7954A95E1F7BA83A98397FF66
:101B20000CC0C114D10449F01197BA83A98388E08D
:101B300090E0FC01EC19FD096F0181E090E0AC013F
:101B40000C2C02C0440F551F0A94E2F75A874987AC
:101B5000832F869586958695377009F08F5FA82F1D
:101B6000880FBB0BBF83AE83B02FB270BB8701FF62
:101B700008C0EE80FF80E1E0EE1AF10881E07827EE
:101B800002C0E12CF12C102F11701D8300FF03C047
:101B9000D101119702C0A0E0B0E037E040E150E091
:101BA00060E0612C712CAA24A394C10101979E8747
:101BB0008D878E819F81E816F9060CF05FC1F7FCD6
:101BC0005DC18A0141E050E05C834B83F80193E002
:101BD000F695E7959A95E1F7E80DF91DE491F0E0A7
:101BE000C8018770992702C0F595E7958A95E2F7B5
:101BF000A8014F5F5F4FE0FF08C00B811C810F5FA2
:101C00001F4F1C830B838A01E1CF8B819C8101973D
:101C1000C1F4FA0183E0F695E7958A95E1F7E80DBE
:101C2000F91D849190E04770552702C095958795DE
:101C30004A95E2F7817099270196A8014E5F5F4FA0
:101C400042C00B811C8101501109188B0F8781E064
:101C500090E00F8402C0880F991F0A94E2F7019662
:101C60001A8A198AFA0113E0F695E7951A95E1F7B1
:101C7000E80DF91DE4910E2F10E01C8B0B8BFA017F
:101C8000E770FF27FC83EB830B8002C01595079557
:101C90000A94E2F700FF0AC0E1E0F0E0098802C020
:101CA000EE0FFF1F0A94E2F78E0F9F1F4F5F5F4FEB
:101CB00009891A890F5F1F4F1A8B098BEF85F889E5
:101CC0000E171F077CF2188A1F86FA2DF81BFC8757
:101CD0000F8518890817190708F0CCC0032F10E0EA
:101CE0001C830B838C01EF85F8890E1B1F0BEB8186
:101CF000FC81B1100DC0E017F10718F40F851889A9
:101D00002AC01C85310FEF853E0F988B8F8739C015
:101D1000E017F10730F53730C9F0772369F007E0B5
:101D200010E00E1B1F0BEFEFF0E002C0F595E795FA
:101D30000A95E2F78F0108C000E81FEF0B8002C090
:101D4000169507950A94E2F7602B01C06FEF0F8597
:101D50001889EB81FC810E0F1F1F188B0F8730E055
:101D600010C0772319F0EB81FC8107C007E010E079
:101D7000EB81FC810E1B1F0BF801EF5DFE4FE08134
:101D80006E2B315008F070C0662309F445C03981CC
:101D90003E0D38300CF040C0FD01E40DF51DE0387B
:101DA000F105D0F5E985FA856E9F80016F9F100DD2
:101DB000112437FD17C0F20160E83603E00DF11D74
:101DC0001124EA0FFB1FEA58FD4FFA8BE98B608163
:101DD000222311F0602B03C0E02FE0956E23E989E8
:101DE000FA896083C114D104B9F03730A9F03F3FBC
:101DF0009CF0F20160E83603E00DF11D1124EA0FBA
:101E0000FB1FEA50FD4F3081222311F0312B03C01C
:101E1000612F609536233083088501117A251FEFE5
:101E2000611A710A3D81332311F0119701C0119697
:101E30006214730484F06B85662321F0A1E0EA1A32
:101E4000F10803C0BFEFEB1AFB0A0D81002331F04C
:101E5000AD85BE8505C037E060E006C0A0E0B0E01B
:101E600037E060E0612C712CEF85F8893196F88BB2
:101E7000EF872ECF1A2D1B19B12E9BCE64960FB66D
:101E8000F894DEBF0FBECDBFDF91CF911F910F91B0
:101E9000FF90EF90DF90CF90BF90AF909F908F908A
:101EA0007F906F905F904F903F902F9008952F926A
:101EB0003F924F925F926F927F928F929F92AF92DA
:101EC000BF92CF92DF92EF92FF920F931F93CF9327
:101ED000DF93CDB7DEB763970FB6F894DEBF0FBEC2
:101EE000CDBF4C015B015B834A832D872DB73EB785
:101EF0003B872A8720E030E040E85FE3C701B60176
:101F00000E94F136181634F4C12CD12C90E8E92E39
:101F10009FE3F92EEA81FB81349031962490832D42
:101F20008F778F5F8E83682E712CB301072C000C86
:101F3000880B990B0E946536A70196010E94F63620
:101F40000E943436162F862F86959401281B31095E
:101F500038872F83C901810F911D97FDFFC120385C
:101F600031050CF0FBC1822D8F738F5F8983882E22
:101F7000912CB401092C000C880B990B0E9465363A
:101F8000A70196010E94F6360E943436C62E862F8F
:101F900086952501481A5108C2018C0D911D97FDA7
:101FA000DDC130E4431651040CF0D8C1331C332496
:101FB000331C398641E04B8B26FE1B8A221C2224CF
:101FC000221C2C862980269426942694312C8981E3
:101FD000877019F05FEF251A350A8DB79EB78619FD
:101FE00097090FB6F8949EBF0FBE8DBF2DB73EB7B1
:101FF0002F5F3F4F3D832C839C81E92FFD812FEF85
:1020000021938E2F891B3E818317D0F320E030E08F
:10201000F12CE12FF0E0402F4170E42EBB24BA9464
:10202000B10EF11699F0C901BF010E948737EE2069
:1020300019F08B2D8F1901C08F2DAC81BD81A60F9A
:10204000B71F8C93F394260D371DEBCF8DB79EB73A
:10205000881999090FB6F8949EBF0FBE8DBFADB712
:10206000BEB711964D019A2FFD012FEF21938E2FB0
:10207000891B19818117D0F3212F30E0E0E0F0E0D7
:1020800010E0EC2CF12C0270DD24DA94DC0C1C1531
:1020900091F0CF01B7010E948737002319F08D2DF1
:1020A000811B01C0812FD401A60FB71F8C931F5F26
:1020B000E20FF31FECCF17E080E190E050E0E12C5D
:1020C000F12C6624639421E231E048E0420F4E8710
:1020D0002F2D30E0221533050CF040C14FEFF416E0
:1020E00009F43CC1BC0121E030E0FB0183E0F6953E
:1020F000E7958A95E1F78A819B81E80FF91FE491C2
:10210000F0E0CB018770992702C0F595E7958A9595
:10211000E2F7CB010196E0FF04C02F5F3F4FBC0107
:10212000E4CF21303105E1F4FC0103E0F695E795B9
:102130000A95E1F7AA81BB81EA0FFB1FA490B12C9D
:102140008770992702C0B594A7948A95E2F7B1E009
:10215000AB22BB24EFEFAE1ABE0ACB01029636C00B
:1021600021503109AA24A394B12C022E02C0AA0C3A
:10217000BB1C0A94E2F7FFEFAF1ABF0A60E070E001
:10218000FC01A3E0F695E795AA95E1F7AA81BB814A
:10219000EA0FFB1FE491F0E0DC01A770BB2702C04F
:1021A000F595E795AA95E2F7E0FF0AC0E1E0F0E0D7
:1021B000062E02C0EE0FFF1F0A94E2F7AE0EBF1EFE
:1021C00001966F5F7F4F62177307D4F220E030E013
:1021D000B62DBA19B9832A153B0508F0BAC0612F8C
:1021E00070E0F501E21BF30B0985011108C06E17C1
:1021F0007F0720F14981140F120F950130C06E172F
:102200007F0700F51730C9F00B89002369F0E7E07C
:10221000F0E0E61BF70BAFEFB0E002C0B595A79575
:10222000EA95E2F7FD0107C0E0E8FFEF02C0F6958E
:10223000E7951A95E2F75E2B01C05FEF260F371F77
:1022400010E00DC00B89002311F0FB0104C0E7E092
:10225000F0E0E61BF70BEF5DFE4F6081562B11504F
:1022600008F074C0EC81FD81EE0DF11D60816F3FBF
:1022700041F41C85112309F45EC01B8916251B8BB4
:102280005AC00F811885060F111DB80100381105BD
:1022900080F7D401E8E0FE9EA00DB11D1124B88B9B
:1022A000AF87A1E2B1E0EF85F8894191F88BEF8724
:1022B0004F3FE1F1EC91E523C9F1D42ED40CED2D83
:1022C000E695E695E695E83088F5F0E00D2D077087
:1022D000D02E1D85F695FE2FEE27F795E795E60F94
:1022E000F71F112399F08F010A581D4F1A8B098B84
:1022F000CD2CD12CF601EF5DFE4F6F01F8017080FF
:10230000F601D0807D28F801708210C08F010A5834
:102310001D4F1A8B098BCD2CD12CF601EF5DFE4F92
:10232000D080D094F801C080DC20D08211960E8538
:102330000A13B9CF9ECFE3940E81E01628F0F394F0
:1023400017E050E0E12C02C017E050E02F5F3F4F54
:1023500042CF262D3985231B2987BACE0A851B85B6
:102360000FB6F8941EBF0FBE0DBF0A851B850FB6B2
:10237000F8941EBF0FBE0DBF63960FB6F894DEBF74
:102380000FBECDBFDF91CF911F910F91FF90EF90C6
:10239000DF90CF90BF90AF909F908F907F906F9085
:1023A0005F904F903F902F9008958F929F92AF92A1
:1023B000BF920F931F93CF93DF93CDB7DEB7A19753
:1023C0000FB6F894DEBF0FBECDBF19A2423008F49D
:1023D0004AE08E010F5D1F4F842E912CA12CB12C51
:1023E000A50194010E949635E62FB901CA0101505A
:1023F0001109EA3014F4E05D01C0E95CD801EC9306
:10240000232B242B252B61F70115110571F0F80101
:1024100001900020E9F73197AF01401B510BB80143
:1024200086E896E00E94660602C080E090E0A196F1
:102430000FB6F894DEBF0FBECDBFDF91CF911F91D5
:102440000F91BF90AF909F908F900895CF92DF92A1
:10245000EF92FF92CF93DF936C01990FEE08FF0884
:10246000F7FE1FC0E0918606F09187060190F0818B
:10247000E02D6DE286E896E00995EC016627772766
:10248000CB016C197D098E099F094AE00E94D51184
:102490008C0F9D1FDF91CF91FF90EF90DF90CF9039
:1024A00008954AE0C701B601DF91CF91FF90EF9008
:1024B000DF90CF900C94D51120919006282329F419
:1024C00090918F06982381E009F480E00895DF92CF
:1024D000EF92FF920F931F93CF93DF937C01D22E45
:1024E0008B01040F111DEB0177FF0EC0C0E0D0E09F
:1024F0000BC0C417D5077CF42D2DAE01B7018AE8B7
:1025000096E00E947B082196A801013411058CF306
:1025100040E450E0EECFDF91CF911F910F91FF90FB
:10252000EF90DF900895EF92FF920F931F93CF9358
:10253000DF93EC018B01E42EF22E6034710510F470
:102540000E94C20CB8016F0D711D61507109603499
:10255000710520F44E2DCE010E94C20C21E04F2DBA
:10256000B801CE010E946712CE018E0D911D21E0AF
:102570004F2DB8010197DF91CF911F910F91FF90DF
:10258000EF900C9467122F923F925F926F927F921E
:102590008F929F92AF92BF92CF92DF92EF92FF9273
:1025A0000F931F93CF93DF9300D000D000D0CDB70F
:1025B000DEB78C017B01522E242F30E03E832D8329
:1025C00081E090E05C01A21AB30AC901919581955E
:1025D0009109FC01EE0FFF1FFA83E983A901460F61
:1025E000571F252DB8018AE896E00E947B08A701B5
:1025F0002D813E81421B530B252DB8018AE896E0C0
:102600000E947B086D817E81600F711F252DA701BF
:102610008AE896E00E947B08B8018D819E81681B44
:10262000790B252DA7018AE896E00E947B08C12C32
:10263000D12CE1E0F0E0FC83EB832D813E81C216DA
:10264000D3060CF070C0B7FC0DC02D813E81215027
:1026500031093E832D8389819A8102969A838983E9
:10266000A80EB91E9FEFC91AD90AEB81FC813296D8
:10267000FC83EB83AE0EBF1E3601600E711E252D4E
:102680008D809E808E0C9F1CA401B3018AE896E089
:102690000E947B0818012C183D08252DA401B101CA
:1026A0008AE896E00E947B08252D47018D819E8156
:1026B000881A990AA401B3018AE896E00E947B086F
:1026C000252DA401B1018AE896E00E947B0846010D
:1026D0008E0C9F1C252DA4016D807E80600E711EC6
:1026E000B3018AE896E00E947B08252DA401180119
:1026F000ED81FE812E1A3F0AB1018AE896E00E9420
:102700007B0847018C189D08252DA401B3018AE898
:1027100096E00E947B08252DA401B1018AE896E08D
:102720000E947B088ACF26960FB6F894DEBF0FBEB4
:10273000CDBFDF91CF911F910F91FF90EF90DF9070
:10274000CF90BF90AF909F908F907F906F905F9051
:102750003F902F900895FC0180917402811103C075
:102760008FEF9FEF08959FB7F89482E08093E90080
:102770002091F20030E01216130614F421E030E04C
:102780002115310559F0289884E6809373028091D1
:10279000F10080838091F200882319F09FBFC90166
:1027A00008958BE68093E800F9CF2FB7F89483E083
:1027B0008093E9009091E800892F807295FF04C012
:1027C0009091F20080E4891B2FBF08958F929F9211
:1027D000AF92BF92CF92DF92EF92FF920F931F932F
:1027E000CF93DF935C016B017A01809118018823FC
:1027F00009F45BC080917402882309F456C080916B
:10280000720280FF05C08091E00082608093E0004A
:10281000E70110E00AEF83E0882E9AE3992E2097D3
:10282000D9F10E94D51381110AC0015009F43DC0AD
:1028300061E070E080E090E00E94DA06F0CF282F9F
:1028400030E0C217D3070CF48C2F4FB7F894809266
:10285000E9009091E80095FF1DC0282F30E0C21BD1
:10286000D30BF601982F915020F081918093F100C5
:10287000FACFC20ED31E112319F09092E80009C0BE
:102880008091E80085FD06C09092E80011E0209755
:1028900009F010E04FBFC3CF1111C3CF5D9884E69C
:1028A000809371021E141F0444F081E090E0F50152
:1028B0009383828380E090E001C0C701DF91CF91D4
:1028C0001F910F91FF90EF90DF90CF90BF90AF904E
:1028D0009F908F9008958091A10681110DC082E094
:1028E00080939D0684E080939E061092A00610922D
:1028F0009F0681E08093A1068DE996E00895CF932D
:10290000DF931F92CDB7DEB76983DC01ED91FC91B7
:102910000280F381E02D41E050E0BE016F5F7F4F08
:1029200009950F90DF91CF91089583E08093E9009E
:102930008091F200882319F08AE38093E8000895DB
:10294000FC018485958597FD0BC09FB7F89482E0C4
:102950008093E9008091F2009FBF90E00196089576
:102960009FB7F89482E08093E9008091F2009FBFC6
:1029700090E008954091FD065091FE062091FB06DF
:102980003091FC0642175307B4F49091E80095701B
:10299000E1F39091E80092FD19C08093F1008091DD
:1029A000FD069091FE0601968F739927892B19F4E5
:1029B0008EEF8093E8008091FD069091FE060196CF
:1029C0009093FE068093FD0681E0089580E00895CF
:1029D000DF92EF92FF920F931F93CF93DF93D82E46
:1029E0008A017B01E40EF51EEB01CE15DF0571F0C7
:1029F000D7FE03C0FE01849101C088810E94BA14F1
:102A000021968111F2CF8FEF9FEF01C0C801DF91B6
:102A1000CF911F910F91FF90EF90DF90089561503B
:102A200030F02091F100FC0120830196F8CF289826
:102A300084E68093730208950E94D51390E0089570
:102A4000CF93DF931F92CDB7DEB7FC0184859585C8
:102A500097FD05C02FEF3FEF358724870BC0CE01D0
:102A600001960E94AB13019719F4898190E002C08E
:102A70008FEF9FEF0F90DF91CF9108950F931F93EA
:102A8000CF93DF931F92CDB7DEB78C01FC01848515
:102A9000958597FF0EC0CE0101960E94AB1301975A
:102AA00019F4298130E002C02FEF3FEFF80135879C
:102AB0002487F801848595850F90DF91CF911F9130
:102AC0000F9108950F931F93CF93DF931F92CDB76C
:102AD000DEB782E0898342E450E06AE07CE080E88F
:102AE0000E94E8140E946B14DC0112960D911C9157
:102AF00013970115110569F0D801ED91FC91028041
:102B0000F381E02DBE016F5F7F4FC801099597FFEC
:102B100007C089810F90DF91CF911F910F91089588
:102B2000F80100851185E5CF1F920F920FB60F9225
:102B300011248F939F938091E1009091E100937F06
:102B40009093E10083FF0FC01092E90091E0909311
:102B5000EB001092EC0092E39093ED00109274025F
:102B600098E09093F00082FF20C093E09093E900FA
:102B70009091F200992319F09AE39093E8009091D4
:102B80007102992339F090917102915090937102E2
:102B9000992389F190917302992339F090917302EE
:102BA000915090937302992341F184FF10C080915A
:102BB000E2008E7E81608093E2008091E1008F7E52
:102BC0008093E100809172028E7E806111C080FF4F
:102BD00016C08091E2008E7E80618093E200809139
:102BE000E1008E7E8093E100809172028E7E816092
:102BF0008093720204C05D9ACDCF289AD6CF9F9160
:102C00008F910F900FBE0F901F9018951F920F92EB
:102C10000FB60F921124CF92DF92EF92FF920F9393
:102C20001F932F933F934F935F936F937F938F9354
:102C30009F93AF93BF93EF93FF93CF93DF93CDB762
:102C4000DEB76C97DEBFCDBF1092E9008091E8003F
:102C500083FFEDC168E0CE0145960E940F1582EF1B
:102C60008093E8008D8987FF05C09091E80090FF70
:102C7000FCCF03C09EEF9093E800982F907609F068
:102C8000C6C09E892F89188D91110CC0803829F4F7
:102C90008091FA068093F10002C01092F100109228
:102CA000F10048C1422F50E0512B913051F4811175
:102CB00041C14130510509F03DC18091FA068D7F37
:102CC0000BC0933061F4811135C14130510509F0D9
:102CD00031C18091FA0682608093FA062BC195304B
:102CE00041F48091E80080FFFCCF20682093E3004E
:102CF00021C1963009F05FC0EB8CFC8C1092E9008A
:102D00001092FE061092FD06123091F51092FC060C
:102D10001092FB060E94621599E0BE016F5F7F4F23
:102D2000DB01E92F1D92EA95E9F799831A8391E077
:102D30009E8390EA98879AEF99872091FD063091BB
:102D4000FE06275F3F4F3C832B838D831092E90063
:102D50001092FE061092FD06F092FC06E092FB0631
:102D600049E050E080E00E94E8140E946215E2C051
:102D7000F092FC06E092FB060E946B14DC011296B6
:102D8000ED90FC901397E114F10409F4C0C0D70151
:102D9000ED91FC910480F581E02DBE016B5E7F4FCB
:102DA000C7010995009719F00CF0C4C0C7C0F7011E
:102DB000E084F184E8CF973009F4C0C0983021F462
:102DC00081E08093F100B6C0993009F0B3C0837000
:102DD00009F0B4C0E0E5F1E081E021E036E3908164
:102DE000992361F08093E9002093EB0091919093F7
:102DF000EC003093ED008F5F873089F78EE780938A
:102E0000EA001092EA008F898093740293C08B8D40
:102E10009C8D1092E9001092FE061092FD06909390
:102E2000FC068093FB06898D811156C08E899D8991
:102E3000913A59F4813209F081C047E050E061E1F4
:102E400071E080E00E94E81475C0913209F076C00C
:102E5000833289F4888D90E0982F88272F89822BE0
:102E6000A0E0B0E08093190190931A01A0931B0198
:102E7000B0931C015FC0803269F48091E80082FF4A
:102E8000FCCF67E081E191E00E940F158BEF80930A
:102E9000E80006C0823209F04DC08F898093180186
:102EA0008091F906882319F0EEEFFAE002C0E0E025
:102EB000F8E08091110190911201A0911301B0915D
:102EC0001401803B9440A105B10509F07BC08091BD
:102ED000180180FF93C076C00E946B14DC0112962B
:102EE0000D911C9113970115110541F1D801ED9138
:102EF000FC910190F081E02DBE016B5E7F4FC80117
:102F00000995811117C0F80100851185ECCF1130AA
:102F100009F44EC0133091F48F89882309F445C019
:102F2000823081F440E867E08EE69CE00E94B53490
:102F3000882321F08EEF8093E80079C081E28093AE
:102F4000EB0075C0813029F440E86BE082E69CE03C
:102F5000EDCF833099F70E946B14DC011296ED904F
:102F6000FC9013978E010F5F1F4F6801E114F1046D
:102F700079F0D701ED91FC910680F781E02DB80141
:102F8000C7010995080F111DF701E084F184EECF08
:102F9000D8011C92F60101900020E9F73197BF019A
:102FA0006C197D0940E0C601C1CF6CE47CE002C031
:102FB00060E57CE06115710509F2FB01449150E088
:102FC00080E840CF0FB6F894A895809160008861A2
:102FD00080936000109260000FBEA895EE3F2AE03B
:102FE000F20739F08091FE0A9091FF0A9183808365
:102FF000A1CF1092FF0A1092FE0A9CCFEE3F8AE00A
:10300000F80731F0808191819093FF0A8093FE0A46
:1030100087E797E7918380839BE088E10FB6F89478
:10302000A895809360000FBE9093600083CF6C964C
:103030000FB6F894DEBF0FBECDBFDF91CF91FF91E9
:10304000EF91BF91AF919F918F917F916F915F9120
:103050004F913F912F911F910F91FF90EF90DF9033
:10306000CF900F900FBE0F901F901895CF93DF93C6
:10307000CDB7DEB769970FB6F894DEBF0FBECDBFF0
:10308000789484B5826084BD84B5816084BD85B543
:10309000826085BD85B5816085BD80916E0081604F
:1030A00080936E00109281008091810082608093F5
:1030B00081008091810081608093810080918000F7
:1030C0008160809380008091910082608093910064
:1030D0008091910081608093910080919000816047
:1030E000809390008091C10084608093C1008091A2
:1030F000C10082608093C1008091C1008160809393
:10310000C1008091C30081608093C3008091C000A2
:1031100082608093C0008091C20081608093C20071
:1031200080917A00846080937A0080917A00826036
:1031300080937A0080917A00816080937A008091F8
:103140007A00806880937A00109274021092FA06D6
:10315000109272028091D70081608093D70080EA3C
:103160008093D80089B5806189BD89B5826089BDA9
:1031700009B400FEFDCF61E070E080E090E00E94C5
:10318000DA068091D8008F7C80618093D80080918E
:10319000E000807F8093E0008091E1008E7E80934C
:1031A000E1008DE08093E200559A209AEEEFFFE770
:1031B000859194918B3F9C4D19F481E08093F906A1
:1031C00081EC80937C0085B1806F85B984B1877E66
:1031D00084B984B1876E84B95E9A5F988AB1806D34
:1031E0008AB9769A6E9881B3806F81BB899880B3D3
:1031F0008D7080BB80E58CBD81E08DBD85E090E069
:103200000E946E085F9A85E090E00E946E085E98CA
:103210005C98ECE5F1E08DE08E0F94919EBD00008E
:103220000DB407FEFDCF31968E13F7CF5C9A81E87F
:10323000809364008091650081608093650080E0E8
:103240000E94180D0E94730887FF24C05C9885EACD
:103250008EBD00000DB407FEFDCF5C9A2E982F980E
:103260002D988091640080628093640081E083BF28
:10327000889513BEFCCF2D980E94730884788438FB
:1032800071F00E9473088471843131F188EC90E010
:103290000E946E080E94730882FDEDCF3AC00E9422
:1032A0006C0888EC90E00E946E082F9882E090E015
:1032B0000E944E358F3F29F06FEF82E090E00E9430
:1032C000563584EF91E00E946E082F9A0E94730891
:1032D00084788438D9F3D5CF0E946C0888EC90E0CC
:1032E0000E946E082E9882E090E00E944E3588235E
:1032F00029F060E082E090E00E94563584EF91E092
:103300000E946E082E9A0E94730884718431D9F34A
:10331000BDCF0E946C0882E090E00E944E35882369
:1033200031F03E9A3F9A81E08093560104C010929A
:1033300056013E983F9881E090E00E944E3581FF13
:103340008FC02E9870EF472E55245A9408E010E055
:103350000E94730886FF04C02E9A2F9A2D9A80C06F
:1033600024E04216510411F42E9A2F9881E00E9415
:10337000180D920157FE04C022273327241935095E
:1033800027703327C20157FC079663E09595879510
:103390006A95E1F757FE05C00197A801421B530B40
:1033A0009A017C01F694FE2CEE24F794E79440E019
:1033B00050E04801821A930AB70160587F4F5B01C1
:1033C0008F3F7FEF970744F40196485A5F4F75018E
:1033D000403B510589F723C0D701A65FBC4F60E091
:1033E00070E08F3FEFEF9E0711F40C94E633FB0182
:1033F000E40FF51FE455FF4FE4916D01CA18DB0897
:10340000CE0CDF1CF0E01F01022E01C0220C0A943A
:10341000EAF7F6017080272820820C94E63380E0DA
:103420000E94180D8FE090E00E946E08FFEF4F1A87
:103430005F0A29E14216510409F08ACF2F9A2D988C
:1034400080E991E00E946E080E946C08E0918A0673
:10345000F0918B060190F081E02D8AE896E00995C5
:1034600082E390E00E946E080E9473088111F8CFF9
:1034700080E180939106809164008E7F8093640048
:1034800080917A00806480937A0080917A0086FD32
:10349000FCCF00917800109179000E94B50620E0E1
:1034A00030E0980111270027600F711F821F931FC2
:1034B000611571058105910511F00E9445358091D6
:1034C00064008160809364008FEE91E00E948A091D
:1034D00090E09093EA018093E90128EDE22E21E04B
:1034E000F22EC12CD12C05E010E0C60180519E4F78
:1034F0000E948A09D7018C9381110DC0C601B801C1
:103500000E9487379B012F5F3F4F622F660F260F68
:10351000220FF7012083FFEFCF1ADF0A2FEFE21A05
:10352000F20A3FE0C316D10401F78CEE91E00E944D
:103530008A09182F809300018DEE91E00E948A097C
:10354000809303018EEE91E00E948A098093060128
:10355000111103C08AE08093000180910301811161
:1035600003C08BE08093030180910601811103C0A9
:103570008CE0809306018FB7F894409157015091E9
:1035800058016091590170915A018FBF8091920644
:10359000942F981B80919306882331F09093940682
:1035A000109293060C94DC3320919106921758F4F4
:1035B0009F5F921710F00C94DC3381E083BF8895F5
:1035C00013BE0C94DC3311E01093930640939206E3
:1035D00020918D0630918E062F5F3F4F30938E06DF
:1035E00020938D06E6E7F2E081118FEF00248193AE
:1035F0008193819381930394D1F71092980610924E
:103600009706109296061092950680918F068093E9
:1036100090060E94730880938F06109262021092A7
:103620006102D0906002DD82D11099C210925F02D7
:1036300010925E0210925D0210925C0210930F01D4
:1036400084E08093100110935A0210925702109256
:10365000560210925402109252021092500210928E
:103660004D0210924C02109249021092480210939F
:103670005B02109259021092580210925502109259
:1036800053021092510210924F0210924E02109269
:103690004B0210924A0210920D01EEE3F2E0A4E315
:1036A000B2E011921D9202E0E834F007D1F71092D7
:1036B00033022DE232E041E252E0ABE1B2E080E0E1
:1036C00090E0F90111929F01FA0111921192AF015C
:1036D0001D92FC01E75FFD4F10821182128203965A
:1036E0008231910571F71092080210920702109230
:1036F0000602A1E0B2E062EF71E047EF51E025E0A1
:10370000240FFA011192AF01CD010597FC0110823F
:103710001D92FB011192BF012413F3CF80EF809320
:10372000F1011092F0011092EF011092EE018091E0
:10373000ED01811103C084EF91E00EC0813019F4D6
:1037400088EE93E009C0823019F480ED97E004C060
:10375000833031F488EB9BE090930C0180930B0154
:1037600040910B0150910C018091EB01853019F0D3
:1037700020E030E002C028EE33E0240F351F309304
:103780000C0120930B012CE130E03093960620933E
:10379000950628E030E03093980620939706811133
:1037A0000CC085E0809301018AE0809304018EE0E3
:1037B0008093070185E392E03DC0813061F48CE0A5
:1037C0008093010186E08093040180E180930701EA
:1037D0008CE292E02FC0823061F489E08093010195
:1037E0008DE0809304018EE08093070183E292E0F4
:1037F00021C0833061F483E1809301018FE08093E5
:10380000040181E18093070189E192E013C08430D3
:1038100079F48091000180930101809103018093EC
:103820000401809106018093070184E192E002C0C7
:1038300089E092E00E94F70C8CE190E0909396066C
:103840008093950680E190E0909398068093970688
:1038500086E092E00E94F70C8091ED01833028F41D
:1038600090E001960E94261204C083E092E00E943C
:10387000F70C0CE110E0109396060093950688E192
:1038800090E0909398068093970687EF91E00E94CE
:10389000F70C109396060093950680E290E09093C3
:1038A0009806809397068AEE91E00E94F70C8CE5CB
:1038B00090E0909396068093950610929806109249
:1038C00097068091E9019091EA01019759F484EEFD
:1038D00091E00E94F70C90E0C92E91E0D92E00E211
:1038E00010E022C08DED91E0F4CF21E041E0B50180
:1038F000C8010E948C0920E0D7014C91B501C80194
:103900000E948C09B8E0AB0EB11CE3E0EE0EF11C96
:10391000F4E4AF16B10449F722E0C20ED11C005DF9
:103920001F4F0038110529F076018CE2A82EB12C2A
:10393000DCCF2091E7013091E801C901B3E0880FA5
:10394000991FBA95E1F744E150E0509396064093F1
:10395000950690939806809397062B30310559F47D
:1039600084E590E0909396068093950610929806D1
:10397000109297060CC0283031054CF0B092960694
:10398000A0929506489790939806809397068BEDA2
:1039900091E00E94F70C8CE190E090939606809362
:1039A0009506109298061092970681ED91E00E947C
:1039B000F70C0091E7011091E8010130110561F465
:1039C000809101018093020180910401809305019F
:1039D000809107018093080180E80E945C1288238F
:1039E00019F0C8010B9607C080E10E945C12882381
:1039F00051F0C80101966CE070E00E949B379093F3
:103A0000E8018093E70188E00E945C12811106C002
:103A100084E00E945C12882309F473C02091E701BE
:103A20003091E8018091EB01482F50E081E090E077
:103A30002130310511F080E090E0840F951F66E0A1
:103A400070E00E949B378093EB018091ED01482F3D
:103A500050E081E090E02230310511F080E090E00C
:103A6000840F951F837099278093ED0123303105D2
:103A700011F00C94033492E081E02115310509F036
:103A800080E0890F2430310511F403E00D831D819E
:103A9000810F809360022B30310591F48091E90110
:103AA0009091EA01019662E070E00E949B3780935A
:103AB000E9019093EA01682F8FEE91E00E94880956
:103AC0008091E7019091E80185309105D4F0059748
:103AD00063E070E00E949B37FB01EE0FFF1FBC010B
:103AE000660F771F860F971F8E0F9F1FFC01E050F8
:103AF000FF4F808190E0019669E170E00E949B3762
:103B00008083C090E701D090E801C601059763E08B
:103B100070E00E949B37660F771F3BE0E32E8C011D
:103B2000000F111F080F191F060F171F00501F4FFE
:103B300025E0C216D10474F03BE0C316D10451F065
:103B4000D801FC908F2D0E94320A811103C0F3949A
:103B5000F801F082EA94E110EBCF0C94A4330D81CC
:103B6000023009F0FAC080915E0290915F020196E6
:103B700090935F0280935E0280E80E945C12009145
:103B8000E7011091E801882321F0C8010F960C94F9
:103B9000083480E10E945C12882321F0C80101965C
:103BA0000C94083480E20E945C1281110C9406345B
:103BB00080E40E945C1281110C94063488E00E941B
:103BC0005C12811105C084E00E945C12882399F088
:103BD000E091E701F091E801EF30F10511F40C9468
:103BE0001234E852FE4F808190E0019669E170E066
:103BF0000E949B3780830091E7011091E8018BE0E0
:103C0000E82E980128523E4F69010F30110551F0FE
:103C1000F601F0808F2D0E94320A811103C0F394C7
:103C2000D601FC92EA94E110F0CF08ED11E0A8EF84
:103C3000BA2E202FE8EDF1E02E1B922F9770F8E0BE
:103C40009F9F40011124740124E0E20EF11C37E033
:103C50003B1518F484E090E002C084E490E021E099
:103C600041E0B7010E948C096801D801AC90B7E02F
:103C7000BB1518F484E090E002C084E490E020E0FA
:103C80004A2DB7010E948C09E7E0EB1518F489E092
:103C900090E002C089E490E09093960680939506A8
:103CA00090929806809297068A2D0E94970AF7E0D4
:103CB000FB1518F48EE290E002C08EE690E090933F
:103CC00096068093950690929806809297060F5FCD
:103CD0001F4FD6018C910E94600A009739F0BC01F9
:103CE00080E090E04AE00E94D51104C08FEC91E0A2
:103CF0000E94F70CB394B7E0BB129BCF89E490E02D
:103D0000909396068093950688E390E090939806AA
:103D1000809397068AEC91E00E94F70C2091E701CE
:103D20003091E801C90168E070E00E949B37BC0156
:103D3000F3E0660F771FFA95E1F728503109283034
:103D4000310518F089E090E002C089E490E028E0B5
:103D500045E20E9493120C94A4330D81033009F0C4
:103D600049C08091020180930101809105018093F7
:103D70000401809108018093070182E080930D0186
:103D8000109360028093EC018093ED0188EE93E044
:103D900090930C0180930B01609100018CEE91E0F7
:103DA0006C8B0E948A096C89681721F08CEE91E077
:103DB0000E948809609103018DEE91E06C8B0E9456
:103DC0008A096C89681721F08DEE91E00E948809BC
:103DD000609106018EEE91E06C8B0E948A096C89DD
:103DE000681711F40C94A4338EEE91E00E948809B8
:103DF0000C94A4331D81113011F00C94A4338091E4
:103E00005E0290915F02019690935F0280935E0242
:103E1000069754F476E8C72E71E0D72EE8E1EE2E2F
:103E2000F12C10E00C94962F8091EE018111F2CFCD
:103E30001092D7011092D60180910D0181117AC0A4
:103E40008091D401811176C00E94730885FF1AC049
:103E500080910F018823B1F020915A0290E00197E0
:103E6000FC01EE0FFF1FE80FF91FE20FF11DEE53EB
:103E7000FE4F8081811106C082E08093D40184E0EE
:103E8000809350020E94730886FF1AC080910F0130
:103E90008230B1F020915A0290E00196FC01EE0FC1
:103EA000FF1FE80FF91FE20FF11DEE53FE4F808157
:103EB000811106C082E08093D40183E08093500298
:103EC0000E94730887FF1AC020915A022223B1F082
:103ED00080910F0190E0FC01EE0FFF1FE80FF91F2A
:103EE000EE53FE4FE20FF11D31978081811106C024
:103EF00082E08093D40181E0809350020E94730895
:103F000084FF18C020915A022230A0F480910F0142
:103F100090E0FC01EE0FFF1FE80FF91FEE53FE4F7C
:103F2000E20FF11D8181811105C082E08093D401EF
:103F30008093500288E00E945C128823C1F0809137
:103F4000F00190E0019665E070E00E949B3780935D
:103F5000F001FC01EE50FE4F8081811102C01092F1
:103F6000F00180E190E0909362028093610284E02E
:103F70000E945C12882341F18091D401811124C0F8
:103F80008091F00190E09C012E503E4F7901D901C3
:103F90001C911123C9F010935002812F0E94020A34
:103FA0008093D4010091EF01812F0E94320A0813FF
:103FB00005C09091F101965E9093F1018093EF011D
:103FC000F70110821092F0018091F1018F5F8093D0
:103FD000F101E7EFF1E020E030E09191992311F059
:103FE0002F5F3F4F02E0E630F007B9F7309307024A
:103FF00020930602232B89F4A7EFB1E0E8EDF1E06E
:104000009F01215F922F21912D939E13FCCF2FE0D2
:1040100030E03093070220930602E7EFF1E09F01C2
:10402000225F9191911105C09081DF0111979C93BE
:1040300010822E13F6CF9091F601992321F081354D
:1040400078F181E52BC0813558F12091060230913D
:104050000702032E000C440B550B211531054105B9
:10406000510571F02C8B3E8B4D8B5F8B0E94403540
:104070002C893E894D895F890E9464359B01AC0182
:104080003093C1012093C001F901E950FE4F8081B6
:104090008093F60110828091F10180558093F101A7
:1040A000E2EFF1E08191811105C08081DF0111977C
:1040B0008C93108231E0E63FF307A1F79DE0892E53
:1040C00091E0992E04ED11E01E870D8700E512E0C6
:1040D0001A8B098B2CEEA22E21E0B22E38E4C32ECF
:1040E00032E0D32E24ED31E03A832983E12CF12C08
:1040F0004AE0642E712C59E1452E512C62E3262EA4
:10410000312CD4018D914D01882309F45EC0E981E1
:10411000FA818081811159C0D6012D913C9111976E
:104120002F5F3F4F2D933C93C901B3010E949B37F2
:104130008230910591F4F5018081811102C0E4E1A2
:1041400007C0813011F4EAE003C0823021F4E5E0D9
:10415000A981BA81EC93E9E10AC0892B59F4D50110
:104160008C91B4E0B81BE981FA81B083E8E0D80112
:10417000EC932BC0C901B2010E949B370B9729F425
:10418000F701E050FF4F908116C0C901B1010E94B4
:104190009B378E9729F4F701E050FF4F93810BC0B6
:1041A000C90164E670E00E949B37C39771F4F70180
:1041B000E050FF4F9681892F9C8B0E94020AA981B3
:1041C000BA818C939C89F801908329813A812F5F71
:1041D0003F4F3A8329830F5F1F4F3FEFA31AB30A64
:1041E00042E0C40ED11CEA94EF2821F0EE24E394BF
:1041F000F12C87CF8091EB01853009F068C01092D7
:10420000D50110925102E0915E02F0915F02CF0160
:1042100060E971E00E949B37009739F410925D02CB
:1042200010925C0288E190E04EC09C012456310956
:104230002436310508F054C08091ED0168E070E04B
:10424000681B7109660F771F80910B0190910C011B
:1042500097FD0196959587952091580230915902C6
:10426000821793071CF080E090E002C084E090E0A9
:10427000681B790BCF010E949B37892B41F58091F8
:10428000330290E0FC01EC5CFD4F41E04083FC0117
:10429000EE0FFF1FE455FE4F29E630E03183208307
:1042A000FC01EE55FE4F20915A022083FC01E25C96
:1042B000FD4F408301966AE070E00E949B37809337
:1042C000330284E090E09093620280936102E09177
:1042D0006102F091620269E072E020E030E01BC10F
:1042E0008C5291408436910508F0A8C080910B0152
:1042F00090910C0197FD0196959587952091580214
:1043000030915902281739070CF03FC00AE010E03D
:10431000CF01B8010E949B37892BC9F62091330247
:1043200030E0D901AC5CBD4F84E08C93C901880FAB
:10433000991FBC0164557E4F7B01CF0164E670E09C
:104340000E949B3763E070E00E949B37E0EF6E2F86
:10435000AC016403D001659FB00D1124CD01875AD3
:104360009F4FD7018D939C93F901EE55FE4F81E04D
:104370008083F901E25CFD4F8083F901E856FE4F2E
:104380008083C9010196B80148C055E0E52EF12CA3
:10439000CF01B7010E949B37009709F045C02091DB
:1043A000330230E0D901AC5CBD4F85E08C93CF0186
:1043B00064E670E00E949B37F901EE0FFF1FE455A1
:1043C000FE4F6FE070E00E949B378C01CB0163E0F1
:1043D00070E00E949B37A0EF6A2FAC01640360017C
:1043E000659FD00C1124C601875A9F4F918380830B
:1043F000F901EE55FE4FC801B7010E949B3760835B
:10440000F901E25CFD4F81E08083F901E856FE4F3F
:104410008083C90101966AE070E00E949B37809317
:1044200033028CE090E04FCF019709F050CF10920B
:104430002802109227021092300249CF6091ED01BC
:104440000DEF0603B0011124625E7F4FCF010E9481
:104450009B37892B09F03BCF0E94403523E030E0A9
:1044600040E050E00E9464356093C0017093C10148
:104470008091330290E020910B0130910C0137FFC5
:1044800002C02F5F3F4F35952795409158025091BC
:1044900059024217530714F027E001C029E0FC013C
:1044A000EC5CFD4F2083FC01EE0FFF1FE455FE4F37
:1044B00029E630E031832083FC01EE55FE4F608316
:1044C000FC01E25CFD4F21E0208301966AE070E090
:1044D0000E949B378093330286E090E0F4CEAC01DB
:1044E000420F531FDA01AA57BE4F1C92DA01AE5396
:1044F000BE4F1C92DB01A80FB91F4C9141110EC099
:1045000001968330910559F72D5F3F4F6D5F7F4FC7
:104510002231310551F080E090E0E1CF433011F4D9
:10452000E1E0F0E041504C93EBCFF0936202E09376
:10453000610280912B0290912C0218161906B4F496
:10454000109222021092210210922D0220917A01E3
:104550008091800190E0FC01EE0FFF1FE80FF91F32
:10456000E20FF11DE75FFD4F85E080838091290216
:1045700090912A0218161906B4F410922202109291
:10458000210210922D0220917A018091800190E009
:10459000FC01EE0FFF1FE80FF91FE20FF11DE75FAF
:1045A000FD4F85E0808326E0E1E2F2E080E090E0EC
:1045B0004191519114161506DCF140815181DF01C2
:1045C00012974D935C93BC01635D7D4FDB011196A7
:1045D0003C9111973C93AC0140585E4FDA01119623
:1045E0003C9111973C93AC0146585E4FDA0111960D
:1045F0003C9111973C93AC01455E5D4FDA011196F9
:104600003C9111973C93AC014C585E4FDA011196E6
:104610003C9111973C93AC0142595E4FDA011196DF
:104620003C9111973C9311821082DB0111961C92F0
:1046300001968530910509F0BBCF215009F0B4CF28
:104640002091080280915E0290915F0264E170E027
:104650000E949B379A87898790903302C0906102AD
:10466000D09062026AE7262E61E0362EE4E7F1E0A0
:10467000FA83E9830EE611E01C830B834BE152E0E1
:1046800058874F837DE2672E72E0772EE0E8AE2EEA
:10469000E1E0BE2EF1E24F2EF2E05F2E10E0882422
:1046A000839404E6D2016D917C916115710509F442
:1046B000F9C1E981FA81808191E0811101C090E026
:1046C000891BE981FA818083EB81FC81908121E063
:1046D000911101C020E0921BEB81FC819083EF815E
:1046E000F8859081923039F4D5019C91992359F045
:1046F00091509C9308C0913031F4F5019081953030
:1047000011F09F5F90838823A9F0D3018C918823B7
:1047100089F0F1014081D5018C9190E09C01220F3C
:10472000331F820F931F840F911DFC01EA57FE4F28
:104730008082B6C1F501F081FB872F2F30E0D101D7
:104740004C91E42FF0E0D901AA0FBB1FA20FB31FB9
:10475000AE0FBF1FAE53BE4F8C92D3018C918230EF
:1047600089F5E984FA84EF2809F012C1892D90E0D7
:10477000DC01AC5CBD4F8C92DC01AA0FBB1FA455C1
:10478000BE4FB90154E0660F771F5A95E1F7685E96
:104790007F4F6D937C93DC01AE55BE4F4C93DC0193
:1047A000A25CBD4F51E06B85633008F450E05C9330
:1047B00001966AE070E00E949B37982EA4E0CA2E12
:1047C000D12CE6C0833009F0E3C06436710509F4EA
:1047D000DFC0161617060CF0DBC08B858530C9F4D8
:1047E000C9010197502F561BDC01AA0FBB1FA80F50
:1047F000B91F6D01CE0EDF1ED601AA57BE4F5C93C6
:10480000D601A75FBD4F74E0D72EDC9241115EC088
:104810008DC0C9010196502F561BDC01AA0FBB1F8A
:104820007D01E80EF91EF88AEF86EE0EFF1ED70115
:10483000AA57BE4F5C93D701A75FBD4F74E0D72E38
:10484000DC92411118C0DC01AA0FBB1F8A0F9B1F0D
:10485000DF0111968A0F9B1FDC01AA57BE4F5C93A4
:10486000DC01A75FBD4F84E0E82EEC92FB84FF20C3
:1048700009F46FC0B5CF7F01A1E0EA1AF108CF8437
:10488000D888CE0CDF1CD601AA57BE4F5C93D60148
:10489000A75FBD4F74E0D72EDC924230A1F6EB84C7
:1048A000EE2061F1C9010197DC01AA0FBB1FA80F1F
:1048B000B91F6D01CE0EDF1ED601AA57BE4F5C9305
:1048C000D601A75FBD4F74E0D72EDC92DC01AA0FA2
:1048D000BB1F6D01C80ED91E7F01A1E0EA1AF108C5
:1048E000CE0CDF1CD601AA57BE4F5C93D601A75F42
:1048F000BD4F74E0D72EDC924230C1F4C901880F5D
:10490000991F820F931FDF0111978A0F9B1FDC01F4
:10491000AA57BE4F502F561B5C93DC01A75FBD4FBB
:1049200074E0E72EEC92423051F115C0DC01AA0F81
:10493000BB1F8A0F9B1FDF0111968A0F9B1FDC0193
:10494000AA57BE4F5C93DC01A75FBD4F84E0F82EF1
:10495000FC924111D3CFC901880F991F820F931F79
:10496000DF0111968A0F9B1FDC01AA57BE4F502F03
:10497000561B5C93DC01A75FBD4F54E05C9374E66B
:10498000E72EF12CD201ED92FC92A0E5CA2ED12C9B
:104990006FE0E62E61E0F62E66E572E0788B6F87B9
:1049A00080E090E0D7015D917D01BB855B1326C05F
:1049B000BC01665A7D4FDB015C9154131FC0AF856B
:1049C000B8896D917C91119768537F4F6D937C935B
:1049D000BC01605B7D4F57E0DB015C93BC016C5216
:1049E0007E4FDB015C93BC016C5A7D4F5AE0DB01CA
:1049F0005C93D2011D921C92D3011C926F85788921
:104A00006E5F7F4F788B6F87019719F081E090E0A0
:104A1000C9CFADE2B2E051E2E52E52E0F52E80E0E2
:104A200090E0B901660F771F260F371FE20FF31FC3
:104A3000BF01675F7D4F181759F1F7012081318160
:104A4000121613062CF52C91222311F19C012C58DF
:104A50003E4FF901208121111BC09C0120583E4F7F
:104A6000F9012081FB852F1313C09C0126583E4F6E
:104A7000F901208124130CC025E0FB012083F20101
:104A800011821082F3011082F701118210821C92B0
:104A90000196F2E0EF0EF11C11968630910559F661
:104AA000212F06C0D3011C92F5011082D1011C9266
:104AB0001F5FB2E04B0E511CEFEFAE1ABE0AFFEFC4
:104AC0002F1A3F0A3FEF631A730A49815A814F5FD9
:104AD0005F4F5A834983EB81FC813196FC83EB83E2
:104AE0004F8158854F5F5F4F58874F83163009F0CD
:104AF000D9CD2F8390923302D0926202C09261028C
:104B0000ECEAF1E0FA83E983B2EA2B2EB1E03B2E26
:104B100018E9A12E11E0B12E0EE312E01C870B87DD
:104B200004E3602E02E0702E86E0C82ED12C93E0C4
:104B3000492E512C20E5822E34E0932E1AE0160DDA
:104B40001B8BD3012C91211107C0E981FA811182BD
:104B50001082D1011C92A2C3EB85FC85408100EE3E
:104B60000403F0011124709610EF1403C001112406
:104B70000896E42EF12CFA86E98608EF0403B001CA
:104B800011246C5F7F4F11E01B83243009F01B82DE
:104B900031E0253009F030E001E010E0213011F083
:104BA00000E010E0E09F7001E19FF00CF09FF00C3E
:104BB0001124A981BA810D911C91E00EF11E01E032
:104BC00010E0223011F000E010E0809FD001819FC2
:104BD000B00D909FB00D112487010A0F1B1F188B79
:104BE0000F8758EE09851A855003D001519FB00DEB
:104BF00011248D01045F1F4FEE24E394F12C233028
:104C000011F0E12CF12C0E9DD0010F9DB00D1E9DD9
:104C1000B00D1124EF84F888AE0DBF1D0B81E02E7E
:104C2000F12C6E9D80016F9D100D7E9D100D112445
:104C3000A00FB11FE32EF12C6E9D80016F9D100D12
:104C40007E9D100D1124A00FB11F01E010E0263051
:104C500011F000E010E0809F7001819FF00C909FA8
:104C6000F00C1124AE0DBF1D01E010E0273011F053
:104C700000E010E0609F7001619FF00C709FF00CED
:104C80001124AE0DBF1D01E010E0283011F000E04E
:104C900010E0809F7001819FF00C909FF00C112418
:104CA000AE0DBF1DEE24E394F12C293011F0E12C60
:104CB000F12C6E9D80016F9D100D7E9D100D1124B5
:104CC0000A0F1B1FA1E0B0E02A3011F0A0E0B0E015
:104CD000EA9FB001EB9F700DFA9F700D1124060F33
:104CE000171F2B3029F461E0D5015C91563008F094
:104CF00060E070E0869FF001879FF00D969FF00DB9
:104D000011240E0F1F1FE0E14E9FD00111241897B0
:104D10002B3029F461E0F5015081573008F460E050
:104D200070E0A69FF001A79FF00DB69FF00D112433
:104D3000E00FF11F61E070E02C3011F060E070E0F6
:104D4000869F8001879F100D969F100D1124E00F04
:104D5000F11FA981BA81ED93FC93CF0141978F3563
:104D60009105B0F4D1011C910196B4E09595879519
:104D7000BA95E1F7B6010E949B37DC01AA0FBB1F71
:104D8000A80FB91FA10FB11DAA57BE4F81E08C9388
:104D9000D5018C919B81930F890F91E02B3009F005
:104DA00090E0890FD5018C93EB80EE2009F44DC083
:104DB0008B3009F082C0CF01409797FD0F9624E019
:104DC000959587952A95E1F7B6010E949B37D10109
:104DD0005C91252F30E0BC01660F771F680F791FAB
:104DE0007B01E20EF31EFC82EB8287010A571E4F05
:104DF000780118E7D7011C93AB81BC81A75FBD4F39
:104E00009C92511113C02F5F3F4FBC01660F771F5B
:104E1000860F971F280F391FD901AA57BE4F88E761
:104E20008C93D901A75FBD4F9C9245C0D9011197C2
:104E30006A0F7B1FDB01AA57BE4F1C93DB01A75FE4
:104E4000BD4F9C925230B9F1DECF3323B1F18B309C
:104E5000A1F5EF802E2D30E02F5F3F4FD901AA0F33
:104E6000BB1FAF5DBD4F0CE211E00D931C93D90148
:104E7000A35DBD4F81E08C93890100581E4FCF0187
:104E8000409797FD0F96A4E095958795AA95E1F731
:104E9000B6010E949B37D8018C93B90166587E4FAA
:104EA000D1018C91DB018C93D901AC58BE4F1C927F
:104EB0000F810F5F0F83D3011C929F012051310995
:104EC00037FF02C0215F3F4FF4E035952795FA95F3
:104ED000E1F761E070E0E985FA856E1B7F0BFB016D
:104EE000E15FFE4F808190E02817390709F0F6C096
:104EF000D1015C91DB01A65ABD4F8C915813EEC0D5
:104F0000DB01AC5ABD4F8C91843008F0E7C0F3014F
:104F100090818CEF890F823008F4E0C0983009F45A
:104F2000DDC0F3E0FC93DB01AA0FBB1FAA5ABD4F03
:104F30000D911C91913019F0A0E0B0E002C0AEE1FB
:104F4000B0E0A00FB11F923019F000E010E002C0F5
:104F500000E510E0A00FB11F933019F0E0E0F0E0A1
:104F600002C0E8E2F0E0EA0FFB1F963019F0A0E083
:104F7000B0E002C0A0E5B0E0AE0FBF1F973019F05F
:104F800000E010E002C002E310E00A0F1B1F99309E
:104F900019F0A0E0B0E002C0ACE3B0E0A00FB11F98
:104FA0009A3019F0E0E0F0E002C0E4E1F0E0EA0F4E
:104FB000FB1F9B3019F0A0E0B0E002C0A6E4B0E017
:104FC0008F010A0F1B1F9C3019F0A0E0B0E002C057
:104FD000A8E7B0E0FB01EE0FFF1FEA5AFD4FA00F5C
:104FE000B11FB183A0839230A9F5DB01A05BBD4F57
:104FF00087E08C93DB01AC52BE4F8C93DB01AC5A43
:10500000BD4F8DE08C93E52FF0E0CF010196B2010A
:105010000E949B378901000F111F020F131F780197
:10502000E80EF91ED701AA57BE4F8C92CF01029607
:10503000B2010E949B37080F191FF801EA57FE4F73
:105040008082F701E75FFD4F9082F801E75FFD4F37
:10505000908242C0933051F4FB01E05BFD4F87E04A
:105060008083FB01EC52FE4F82E122C0963021F09A
:10507000993011F09C3089F4FB01E05BFD4F87E033
:105080008083FB01EC52FE4F8083FB01EC5AFD4F05
:105090008DE080839B3001F521C09A3059F4FB01EB
:1050A000E05BFD4F87E08083FB01EC52FE4F8EE119
:1050B000808312C09B3081F4FB01E05BFD4F87E0F1
:1050C0008083FB01EC52FE4F88E08083FB01EC5AA9
:1050D000FD4F85E0808302C0D3011C92C901B60157
:1050E0000E949B377C01E1E2F2E0F98FE88F00E853
:1050F00011E01C830B83E0E0F0E04F5F8C01000FB8
:10510000111F080F191FAB81BC815D91BC83AB835C
:10511000852F90E0E816F90609F0B5C0D1018C9111
:10512000DF01A658BE4F9C918913ADC0A88DB98DE3
:105130002D913C91121613060CF0A5C0D3019C9141
:105140006CEF690F633008F49EC0913091F461E018
:1051500070E0533010F060E070E0A985BA856A17FE
:105160007B0739F0DF01A35DBD4F5C91523009F43C
:105170008AC0DF01A259BE4F53E05C93913019F011
:1051800060E070E002C06EE170E0261B370B9230E9
:1051900019F060E070E002C060E570E0261B370B9C
:1051A000933019F060E070E002C068E270E0261B06
:1051B000370B973019F060E070E002C068EE73E0E2
:1051C000261B370B993019F060E070E002C06CE3E9
:1051D00070E0261B370B9A3019F060E070E002C0D7
:1051E00064E170E0261B370B9B3019F060E070E043
:1051F00002C066E470E0261B370B9C3019F060E0BB
:1052000070E002C068E770E0261B370BA88DB98DEF
:105210002D933C93923029F5282F30E0C901019657
:10522000B2010E949B37B801680F791F788B6F8796
:10523000DB01AA57BE4F8C92C9010296B2010E94AF
:105240009B37800F911FDC01AA57BE4F8C92AF8510
:10525000B889A75FBD4F9C92DC01A75FBD4F9C92B0
:1052600010C0933011F0983051F4DF01AC58BE4FAC
:105270008C91811104C0DF01A55EBD4F4C93973026
:1052800011F0D3011C923196288D398D2E5F3F4F3E
:10529000398F288FE630F10509F035CFE981FA81A1
:1052A00081919191FA83E98340978136910510F0BD
:1052B000D3011C92BFEF6B1A7B0AEFEF2E1A3E0A46
:1052C000FFEFAF1ABF0A0B851C850F5F1F4F1C87AE
:1052D0000B871B89161135CC2F81209308021FE004
:1052E000212E11E0312E0AE5402E02E0502E40E53D
:1052F00052E05A834983F201410184ED682E81E036
:10530000782E60E070E032E324E09CE2B92ED30115
:105310008D913D01823009F063C0A981BA818C91E1
:10532000843109F061C0D4011C91C12ED12C1530FB
:10533000A1F4C60101971081AC01440F551F840FE1
:10534000951F810F911DAC014A575E4FDA01BC9247
:10535000875F9D4FDC012C9315C0C601019600812B
:10536000AC01440F551F840F951F800F911DAC0198
:105370004A575E4FDA01BC92875F9D4FDC012C9348
:105380001111D7CFF0800F2D10E0F11011C00F5F79
:105390001F4FC601880F991F8C0D9D1D080F191FE7
:1053A000D801AA57BE4FBC92D801A75FBD4F65C0B8
:1053B000C601880F991F8C0D9D1DA80141505109F0
:1053C000840F951FAC014A575E4FDA01BC92875F8C
:1053D0009D4FDC012C93B2E0FB1609F45FC0D7CFE0
:1053E0008D7F843009F05AC0A981BA818C918731B0
:1053F00009F054C0D4018C9190E0DC011196A60F05
:10540000B71FA0804A2D50E08D01000F111FA00F83
:10541000B11F7D01E40EF51E87010A571E4FD8010A
:105420003C93D701A75FBD4F2C930296DB01AA0FD7
:10543000BB1F8A0F9B1F7C01EE0CFF1C8701080F0E
:10544000191FD801A40FB51FBC83AB83AA57BE4F49
:105450003C93AB81BC81A75FBD4F2C93A1100FC0C3
:105460004F5F5F4F8E0D9F1D480F591FDA01AA57DE
:10547000BE4F3C93475F5D4FDA012C930FC0DA01BA
:1054800011970A0F1B1FD801AA57BE4F3C93D80192
:10549000A75FBD4F2C93B2E0AB12E2CF0FEF801AA3
:1054A000900A62507109319649815A814F5F5F4F6E
:1054B0005A8349836C3F5FEF750709F028CF66E890
:1054C00071E020E057E0652EEEE0BE2EF3E0AF2E57
:1054D00080E090E0782EFB01E80FF91F30813A3030
:1054E00028F4019683309105A9F75AC046E5842E29
:1054F00042E0942EE4E5F2E00FE011E040E050E0FD
:10550000E32EF12CD801DD908D01D2121BC0DA01FF
:10551000A65ABD4FDC90D71015C0D080B3E0BD15A2
:1055200088F0D401CD90DC901197CE0CDF1CCD9289
:10553000DC92DA01A05BBD4F6C92DA01AC52BE4F37
:105540006C92B082B2E08B0E911C319641305105C5
:1055500019F041E050E0D6CFE1E2F2E000E811E0DE
:1055600040E050E0E32EF12CD8013D918D01321343
:1055700010C0DA01A658BE4F3C9137110AC0A08175
:10558000B181AE19BF09B183A083DA01A259BE4F20
:10559000AC924F5F5F4F32964630510529F7A1CF4D
:1055A0002F5F6D5F7F4F263009F092CF0CE611E040
:1055B0001C830B8304E512E018870F8314EDE12EA2
:1055C00011E0F12E0CE611E01C870B871A8219827C
:1055D00004E1A02EB12C612C712C0AE010E085E0D2
:1055E000882E912C93E0C92ED12C462DAB85BC85FD
:1055F0001C92EF81F885808191E0811101C090E0DB
:10560000891BAF81B8858D93B887AF83F70120815F
:10561000222309F4D1C321502083F301E05BFD4F25
:1056200030818FEF830F8430D8F583E0AB85BC8564
:105630008C932111C1C3F1018081482F50E081E09A
:1056400090E0333011F080E090E0840F951F34300B
:1056500019F040E050E002C045E050E0840F951F93
:1056600066E070E00E949B37D1018C93F20180814B
:10567000482F50E081E090E0323011F080E090E07F
:10568000840F951F313019F020E030E002C022E095
:1056900030E0820F931FB6010E949B37D2017BC37B
:1056A0003530E1F531E0EB85FC853083223009F0BF
:1056B00083C38091330290E0FC01EC5CFD4F3083AA
:1056C000D1012C91FC01EE0FFF1FE455FE4FB0E11C
:1056D0002B9F90011124285E3F4F31832083FC01D2
:1056E000EE55FE4FD2012C912083FC01E25CFD4F70
:1056F00040830196B8010E949B3780933302611466
:10570000710429F48091F101865E8093F10184E0B7
:1057100090E090936202809361024EC3363071F53F
:1057200051E0EB85FC855083D7011C924091080223
:10573000842F90E00196FC01EE0FFF1FEF5DFD4FFF
:105740002CE231E031832083FC01E35DFD4F508387
:10575000FC01E058FE4FD1012C91BD812B0F20831D
:10576000FC01E658FE4FD2012C912083FC01EC583D
:10577000FE4F2AE0208381E0840FCAC2373011F443
:1057800086E092C23830B1F583E0AB85BC858C935E
:105790000E94403529E030E040E050E00E9464354E
:1057A0007093C1016093C001F7012081211104C3EE
:1057B000CB01B6010E949B3729813A81280F391FFE
:1057C000A901440F551F240F351F260F371FF9015C
:1057D000EE53FE4F40814111EFC2F901EA57FE4FEF
:1057E00020812111E9C2F9818F0FD1018C93F2013F
:1057F0006083E2C2393091F581E0AB85BC858C9342
:10580000223009F0D9C28091330290E0FC01EC5CB7
:10581000FD4F2083F1012081FC01EE0FFF1FE455B5
:10582000FE4F50E1259F90011124285E3F4F3183A8
:105830002083FC01EE55FE4FD2012C912083FC0108
:10584000E25CFD4F40830196B8010E949B37809334
:105850003302D0926202C0926102AEC23A3059F570
:1058600081E0EB85FC858083D7011C9220910802A2
:10587000822F90E00196FC01EE0FFF1FEF5DFD4FC0
:1058800046E950E051834083FC01E35DFD4F42E077
:105890004083FC01E058FE4FD1014C91BD814B0F7C
:1058A0004083FC01E658FE4FD2014C914083FC013D
:1058B000EC58FE4F2AC23B3049F581E0EB85FC8570
:1058C0008083223009F078C28091330290E0FC019D
:1058D000EC5CFD4F23E02083D1012C91FC01EE0F05
:1058E000FF1FE455FE4FB0E12B9F90011124285E6D
:1058F0003F4F31832083FC01EE55FE4FD2012C91A6
:105900002083FC01E25CFD4F40832EC03C30A9F5B2
:1059100081E0AB85BC858C93223009F04DC280912B
:10592000330290E0FC01EC5CFD4F24E02083F101A8
:105930002081FC01EE0FFF1FE455FE4F50E1259F33
:1059400090011124285E3F4F31832083FC01EE55E6
:10595000FE4FD2012C912083FC01E25CFD4F40837D
:10596000FC01E856FE4F10820196B8010E949B3759
:1059700080933302ECE0F0E004C23D3079F481E042
:10598000AB85BC858C93223009F016C2809133021E
:1059900090E0FC01EC5CFD4F25E0C8CF3E3089F57E
:1059A00081E0AB85BC858C93223009F005C28091E3
:1059B000330290E0FC01EC5CFD4F26E02083F10116
:1059C0002081FC01EE0FFF1FE455FE4F50E1259FA3
:1059D00090011124285E3F4F31832083FC01EE5556
:1059E000FE4FD2012C912083FC01E25CFD4F4083ED
:1059F0000196B8010E949B3780933302E7E0F0E004
:105A0000C0C13F3079F581E0AB85BC858C932230F5
:105A100009F0D2C18091330290E0FC01EC5CFD4FB3
:105A200027E02083F1012081FC01EE0FFF1FE455E8
:105A3000FE4F50E1259F90011124285E3F4F318396
:105A40002083FC01EE55FE4FD2012C912083FC01F6
:105A5000E25CFD4F40830196B8010E949B37809322
:105A6000330258C1303109F056C08EE0EB85FC8519
:105A70008083223009F0A0C18091330290E0FC01C4
:105A8000EC5CFD4F38E03083FC01EE0FFF1FE45566
:105A9000FE4FB182A082FC01EE55FE4F1082FC0148
:105AA000E25CFD4F40830196B8010E949B37FC01E8
:105AB000EC5CFD4F3083FC01EE0FFF1FE455FE4F01
:105AC000B182A082FC01EE55FE4F51E05083FC01F3
:105AD000E25CFD4F40830196B8010E949B37FC01B8
